:100000000C9408010C942E010C942E010C942E01DA
:100010000C942E010C942E010C94D5170C942E01E7
:100020000C942E010C942E010C942E010C94111C96
:100030000C942E010C942E010C94681A0C942E0131
:100040000C942E010C942E010C942E010C942E0174
:100050000C942E010C942E010C942E010C94331C44
:100060000C942E010C942E01191B701B841BB51BC4
:10007000BD1B9B1BC01B1C1D0D1E0D1E251D281D01
:100080002B1D2D1D2F1D311DE21D431D0763423603
:10009000B79BD8A71A39685618AEBAAB558C1D3C19
:1000A000B7CC5763BD6DEDFD753EF6177231BF00DD
:1000B0000000803F08000000BE922449123EABAA17
:1000C000AA2ABECDCCCC4C3E00000080BEABAAAA72
:1000D000AA3E00000000BF000000803F00000000BA
:1000E00000084178D3BB4387D1133D190E3CC3BDF3
:1000F0004282AD2B3E68EC8276BED98FE1A93E4CA0
:1001000080EFFFBE01C4FF7F3F00000000006E6172
:100110006E00696E660000407A10F35A00A0724EBD
:1001200018090010A5D4E80000E87648170000E49C
:100130000B54020000CA9A3B000000E1F5050000E4
:1001400080969800000040420F000000A086010049
:100150000000102700000000E80300000000640019
:10016000000000000A000000000001000000000084
:100170002C76D888DC674F0823DFC1DFAE59E1B1A8
:10018000B796E5E3E453C63AE651997696E8E6C2B7
:100190008426EB898C9B62ED407C6FFCEFBC9C9FBE
:1001A00040F2BAA56FA5F490055A2AF75C936B6CE0
:1001B000F9676DC11BFCE0E40D47FEF520E6B500D4
:1001C000D0ED902E0300943577050080841E080042
:1001D00000204E0A000000C80C333333330F986EF2
:1001E00012831141EF8D2114893BE65516CFFEE6AF
:1001F000DB18D1844B381BF77C1D901DA4BBE42475
:10020000203284725E228100C9F124ECA1E53D27F1
:1002100011241FBECFEFD8E0DEBFCDBF14BE88E1F2
:100220000FB6F89480936000109260000FBE11E04A
:10023000A0E0B1E0E6E8F1E502C005900D92A4313E
:10024000B107D9F714E0A4E1B1E001C01D92A132D9
:10025000B107E1F70E9437220C94C1280C940000EA
:100260008091000190910101FC01EE55FE4F20812B
:10027000211103C08A569E4F089580E090E00895B2
:100280001F93CF93DF932091000130910101A901C9
:100290004C555D4FDA01EC91E901B0E1EB9FC00DE7
:1002A000D11D1124CD55DE4F1CE0FC01DE01019073
:1002B0000D921A95E1F7FB0180819181A281B381B2
:1002C0008C879D87AE87BF87DA018C9190E001967D
:1002D0008F7099278C93F901ED55FD4F20812817D8
:1002E00021F0DF91CF911F91089501968F7099278A
:1002F00080838DE091E0DF91CF911F910C94CC270A
:10030000DF92EF92FF920F931F93CF93DF930E94A0
:10031000B3180196E1F30E944C180E94B0180E9495
:100320009818182F0E949818D82EC0910001D091CB
:1003300001017E018FE7E81A8EEFF80AA4E61A9F02
:10034000C00111240FEF10E0B8010E946922882734
:1003500077FD8095982F0E94D2232AE037ED43E263
:100360005CE30E94862420E030E040EC50E40E94F0
:100370008624F7016083718382839383CB57DE4F9A
:10038000F4E6DF9EC0011124B8010E94692288278B
:1003900077FD8095982F0E94D2232AE037ED43E223
:1003A0005CE30E94862420E030E040EC50E40E94B0
:1003B0008624688379838A839B830E949818282FD8
:1003C00030E03093170420931604C0910001D091BF
:1003D0000101FE01E058FE4F91E09083FE01E357DA
:1003E000FE4F1082FE01E458FE4F11821082FE0182
:1003F000E158FE4F1082FE01E258FE4F1082FE01CE
:10040000E757FE4F1082118212821382FE01E257DB
:10041000FE4F1082118212821382FE01EE56FE4FB1
:100420001082118212821382FE01EE55FE4F9083DC
:10043000FE01E156FE4F1082FE01EA56FE4F808318
:10044000DE01A956BE4F1C92DE01A856BE4F1C927B
:10045000DE01A356BE4F1C92DE01AF57BE4F8D91F9
:100460009D910D90BC91A02DAC01BD0137E175951A
:100470006795579547953A95D1F750E08A010F5700
:1004800011090131110514F000E110E0AC01BD01CA
:100490006F7777272DE076956795579547952A953D
:1004A000D1F77E0127E6E21A2EEFF20A013F2FEF85
:1004B000120714F401EF1FEF015F000F000FBB0FD5
:1004C000880B982FDC01879588278795802B852BB3
:1004D000D7018C93DE01A556BE4F4C93DE01AB577E
:1004E000BE4F0D911D912D913C91D901C80147E15D
:1004F000B595A795979587954A95D1F790E08F5731
:1005000091098131910514F080E190E0B901A801D1
:100510006F777727ADE07695679557954795AA95BC
:10052000D1F77E01B6E6EB1ABEEFFB0A813FAFEFD3
:100530009A0714F481EF9FEF815F880F880F330FC4
:10054000000B102F9801079500270795082B052B06
:10055000D7010C93DE01A456BE4F4C93CF010E94ED
:10056000201EC056DE4F99838883E0910001F091F0
:100570000101EE55FE4F1082DF91CF911F910F9137
:10058000FF90EF90DF900895E0910001F09101015C
:10059000E258FE4F80830895E0910001F09101013F
:1005A000E258FE4F808190E00895E0910001F091C3
:1005B0000101E158FE4F80830895E0910001F09120
:1005C0000101E158FE4F808190E00895A091000163
:1005D000B0910101FD01E458FE4F40815181141694
:1005E0001506DCF42D913C91119728173907B9F0C5
:1005F00060E073E10CC0729FF001739FF00D112455
:10060000EA0FFB1F208131812817390741F06F5F06
:10061000262F30E02417350774F380E0089581E039
:100620000895CF93E0910001F0910101EF57FE4F43
:10063000C1E020E030E040E850E4608171818281D7
:1006400093810E94822418161CF48C2FCF91089558
:10065000C0E08C2FCF910895BF92CF92DF92EF929E
:10066000FF920F931F93CF93DF930091000110919E
:100670000101F801E458FE4FE080F1801E141F04D0
:100680007CF520E030E0BB24BA94D12C43E1C42EA9
:10069000C29EE001C39ED00D1124C00FD11F20E0E7
:1006A00030E040E850E46F81788589859A850E9422
:1006B0008224181624F49A819B1508F4B92ED39439
:1006C0002D2D30E02E153F051CF38B2DDF91CF91A2
:1006D0001F910F91FF90EF90DF90CF90BF90089502
:1006E000BB24BA94F2CFCF93409100015091010105
:1006F000FA01E458FE4F6081718116161706FCF46A
:1007000020E030E0BFEF80E090E0A0E0C3E1C29FD6
:10071000F001C39FF00D1124E40FF51F22812B1768
:1007200030F43481323018F080819181B22FAF5F84
:100730002A2F30E02617370754F3CF91089580E031
:1007400090E0FBCF1F93CF93DF93609100017091F6
:100750000101FB01E458FE4FA081B1811A161B066E
:1007600014F540E050E0D0E080E090E0C0E020E010
:1007700030E013E1149FF001159FF00D1124E60FF6
:10078000F71F4281D41708F4C901D41708F4D42FF5
:10079000CF5F2C2F30E0A9012A173B075CF3DF91D4
:1007A000CF911F91089580E090E0F9CFCF93DF9330
:1007B000A0910001B0910101FD01E458FE4F60815C
:1007C000718116161706DCF42D913C9111972817AC
:1007D0003907C9F0C0E0D3E10CC0D29FF001D39F2C
:1007E000F00D1124EA0FFB1F408151814817590772
:1007F00061F0CF5F2C2F30E02617370774F38FEFAF
:10080000DF91CF91089520E030E083E1829FF001F5
:10081000839FF00D1124EA0FFB1F8281DF91CF919E
:100820000895CF93DF93A0910001B0910101FD01E4
:10083000E458FE4F6081718116161706DCF42D9185
:100840003C91119728173907C9F0C0E0D3E10CC0DB
:10085000D29FF001D39FF00D1124EA0FFB1F4081BE
:1008600051814817590761F0CF5F2C2F30E02617D0
:10087000370774F380E0DF91CF91089520E030E0F6
:1008800083E1829FF001839FF00D1124EA0FFB1F8B
:100890008381DF91CF910895CF93DF93A0910001E1
:1008A000B0910101FD01E458FE4F6081718116167F
:1008B0001706DCF42D913C91119728173907D1F0D8
:1008C000C0E0D3E10CC0D29FF001D39FF00D112402
:1008D000EA0FFB1F408151814817590769F0CF5F2C
:1008E0002C2F30E02617370774F38FEF90E0DF915D
:1008F000CF91089520E030E083E1829FF001839F53
:10090000F00D1124EA0FFB1F85819681DF91CF91B5
:100910000895A0910001B0910101FD01E458FE4F3E
:100920002081318112161306C4F413968C9113970B
:10093000811115C040E053E10AC0589FF001599F52
:10094000F00D1124EA0FFB1F8381811108C04F5F56
:10095000842F90E08217930784F381E0089580E06C
:1009600008952F923F924F925F926F927F928F9253
:100970009F92AF92BF92CF92DF92EF92FF920F932E
:100980001F93CF93DF9300D000D0CDB7DEB7209177
:100990000001309101013A832983F901E458FE4FA7
:1009A00000811181101611060CF066C080E090E005
:1009B000312C412C512C32015301420153E1252E9F
:1009C000289ED001299EB00D1124E981FA81AE0F35
:1009D000BF1FBC83AB8312966C9170E080E090E007
:1009E0000E94D0239B01AC0160E070E080E89FE3AF
:1009F0000E9437236B017C01AB81BC8114966C9102
:100A000070E080E090E00E94D023A70196010E9450
:100A100086249B01AC01C501B4010E94CF224B0189
:100A20005C01A7019601C301B2010E94CF222B01F4
:100A30003C013394832D90E0801791070CF2A301C1
:100A40009201C501B4010E9437230F900F900F90BF
:100A50000F90DF91CF911F910F91FF90EF90DF905A
:100A6000CF90BF90AF909F908F907F906F905F904E
:100A70004F903F902F900895412C512C32015301FB
:100A80004201DDCF4F925F926F927F928F929F9241
:100A9000AF92BF92CF92DF92EF92FF920F931F938C
:100AA0004B015C0167017801C701B6010E948624F1
:100AB0002B013C01A701960160E070E080E89FE314
:100AC0000E94CE22A50194010E9486249B01AC01C4
:100AD000C301B2010E94CF221F910F91FF90EF90AE
:100AE000DF90CF90BF90AF909F908F907F906F904E
:100AF0005F904F9008952F923F924F925F926F9226
:100B00007F928F929F92AF92BF92CF92DF92EF929D
:100B1000FF920F931F93CF93DF93CDB7DEB72E973E
:100B20000FB6F894DEBF0FBECDBF6091000170918B
:100B30000101FB01E458FE4F808191811B011816D1
:100B400019060CF05CC1BFE72B1ABEEF3B0AF1019E
:100B500040805180628073809B012B573E4F3E83C3
:100B60002D83D9012D913D914D915C9129833A833B
:100B70004B835C839B012D5F3F4F38872F8323E19D
:100B8000289F8001299F100D11244F815885040F43
:100B9000151F812C912C540175016401EF81F8859A
:100BA00031978081863560F5AF81B8858C91815011
:100BB000823030F1A301920114966D917D918D9157
:100BC0009C9117970E94CE229B01AC01C501B401F4
:100BD0000E94CF224B015C0129813A814B815C81CB
:100BE000EF81F88560857185828593850E94CE228C
:100BF0009B01AC01C701B6010E94CF226B017C01B1
:100C00002F8138852D5E3F4F38872F83201731077E
:100C100029F620E030E040E05FE3C501B4010E9426
:100C200086246F83788789879A8720E030E040E2C6
:100C300051E4C701B6010E9486246B877C878D87AB
:100C40009E872AE037ED43EA5DE3C301B2010E94CB
:100C500086246B017C012AE037ED43EA5DEB698174
:100C60007A818B819C810E9486249B01AC01C70103
:100C7000B6010E94CF222FE832EC45EF5CE30E94E0
:100C8000CF224B015C012DEC3CEC4CEC5DE3C3014D
:100C9000B2010E9486242FE832EC45EF5DE30E940A
:100CA000CE226B017C0120E030E0A901C501B40136
:100CB0000E94332387FD9BC02FE135E84BE65EE3BE
:100CC000C501B4010E94822487FD08C07FE1872E00
:100CD00075E8972E7BE6A72E7EE3B72E20E030E066
:100CE000A901C701B6010E94332387FD84C020E01B
:100CF00030E040E05FE3C701B6010E94822487FD37
:100D000005C0C12CD12CE12C6FE3F62E2FE832EC7C
:100D100045EF5CE3C301B2010E9486249B01AC0154
:100D2000C501B4010E94CE2220E030E040E253E44D
:100D30000E9486242F81388549855A850E94CF22BA
:100D400027E137EB41E558E30E948624A301920195
:100D50000E94CF22D1016D937D938D939C93139725
:100D60002FE832EC45E75DE369817A818B819C81D4
:100D70000E9486249B01AC01C701B6010E94CE22CD
:100D800020E030E040E253E40E9486242B853C853D
:100D90004D855E850E94CF2227E137EB41E558E380
:100DA0000E94862429813A814B815C810E94CF2256
:100DB000ED81FE8160837183828393832E960FB6CB
:100DC000F894DEBF0FBECDBFDF91CF911F910F9181
:100DD000FF90EF90DF90CF90BF90AF909F908F905B
:100DE0007F906F905F904F903F902F900895812C4F
:100DF000912C540173CFC12CD12C760187CF2FE7D2
:100E0000221A2EEF320AD1014D905D906D907C90A8
:100E1000FB01EB57FE4FFE83ED8320813181428140
:100E2000538129833A834B835C831B861C861D86F2
:100E30001E861F82188619861A8603CF80910001AC
:100E400090910101FC01EE56FE4FDC01A257BE4F0E
:100E50002D913D914D915C91608171818281938151
:100E60000E9437232DEC3CEC4CE45FE30E943323DB
:100E7000881F8827881F08958091000190910101A3
:100E8000FC01EE56FE4FDC01A257BE4F2D913D9165
:100E90004D915C9160817181828193810E943723A1
:100EA0002DEC3CEC4CE45FE30E943323881F882741
:100EB000881F089508952091000130910101F901E2
:100EC000E357FE4F4081411103C097FD16C00895BE
:100ED00018161906E4F71082F901E158FE4F8081D7
:100EE000813071F0823099F781E00E947A16E091AA
:100EF0000001F0910101E158FE4F81E080830895E7
:100F000082E00E947A16E0910001F0910101E1581F
:100F1000FE4F82E0808308951F93CF93DF931F924B
:100F2000CDB7DEB7182F462F50E0282F30E024171A
:100F30003507B4F4E0910001F0910101E058FE4F53
:100F40008081823041F182E069830E947A16E091CB
:100F50000001F0910101E158FE4F82E08083698138
:100F60001617A0F0E0910001F0910101E058FE4F4A
:100F700010811230F1F081E00E947A16E0910001B8
:100F8000F0910101E158FE4F81E080830F90DF91E5
:100F9000CF911F91089581E069830E947A16E091B4
:100FA0000001F0910101E158FE4F81E080836981E9
:100FB000D7CF82E00E947A16E0910001F091010102
:100FC000E158FE4F10830F90DF91CF911F9108954C
:100FD0000C949818CF930E949818C82F0E949818C4
:100FE0002C2F30E0322F2227A901482BCA01CF91A4
:100FF0000895CF92DF92EF92FF920F931F93CF93BA
:10100000DF93D82EC0910001D0910101FE01E45878
:10101000FE4F00811181101611062CF520E030E002
:10102000E12CF12CF3E1CF2E06C0F3942F2D30E00C
:1010300020173107C4F4C29EF001C39EF00D1124A5
:10104000EC0FFD1F20E030E040E850E46781708540
:10105000818592850E94822418160CF4E394ED1089
:10106000E4CF81E001C080E0DF91CF911F910F912B
:10107000FF90EF90DF90CF9008952F923F924F9284
:101080005F926F927F928F929F92AF92BF92CF9218
:10109000DF92EF92FF920F931F93CF93DF93CDB721
:1010A000DEB72E970FB6F894DEBF0FBECDBF2091EE
:1010B000000130910101F901ED55FD4F808140E1C2
:1010C000849FC00111243C01ADE56A1AAEEF7A0A93
:1010D000620E731EF301018110E0102F0027408182
:1010E000042B81559E4F820F931F0E94D018A09110
:1010F0000001B09101017D01F4E8EF1AFEEFFF0A53
:10110000F70160817181863508F04EC0161617060A
:101110000CF0BCC12D913C9111972017310709F4B7
:1011200096C190E023E1D22E0DC0D29EF001D39E55
:10113000F00D1124EA0FFB1F408151814017510728
:1011400009F487C19F5F292F30E0261737076CF31A
:101150002617370709F05CC0233131050CF448C06D
:10116000A12CB12CD12CC12CE12CF12C60E070E031
:1011700093E1992E0DC0AB015A01C91608F4C92E8E
:10118000D3946D2D70E07B01621773070CF081C161
:101190009E9CF0019F9CF00D1124EA0FFB1F928191
:1011A000C91648F3A501E8CF161617060CF06EC154
:1011B000FD01E258FE4F9081923009F4ABCF2E969C
:1011C0000FB6F894DEBF0FBECDBFDF91CF911F9158
:1011D0000F91FF90EF90DF90CF90BF90AF909F90D6
:1011E0008F907F906F905F904F903F902F900895D9
:1011F000A9014F5F5F4FF7015183408393E1929FB5
:10120000F001939FF00D1124EA0FFB1F1682158247
:1012100093E1929F1001939F300C11249D01220DA8
:10122000331DF901118300834091E0035091E103E4
:101230006091E2037091E3034787508B618B728B5F
:101240008283F3018281F9018483F3018781F901AB
:10125000838393012D5F3F4F3F832E83C301059608
:101260009987888797E0290E311C2A0E3B1EA88596
:10127000B985BC87AB87F9018191FF83EE83F82F95
:10128000FF1FFF27FF1FFA87282F269526952F710E
:101290002D83A885B9850D91B987A887837010E043
:1012A000182B80E090E0A0E0B4E489839A83AB83BC
:1012B000BC83412C512C612CAFE37A2EB9E0EB2E8C
:1012C000F12C812C912C5401FE86ED8628C0BD01A5
:1012D0006A507109882777FD8095982F0E94D22344
:1012E0009B01AC0160E070E080E090E40E94E924A2
:1012F0002B013C012D853E85B901882777FD80951E
:10130000982F0E94D2239B01AC0160E070E080E046
:1013100090E40E94E92469837A838B839C83B801DB
:101320000D8402C0769567950A94E2F780E090E01C
:101330000E94D0236B017C01A30192010E948624AC
:101340009B01AC01C501B4010E94CF224B015C019D
:10135000B80180E090E00E94D0232B013C0129815C
:101360003A814B815C81C701B6010E9486249B01B2
:10137000AC01C301B2010E94CE220E94A4238B01C2
:10138000AD85BE851197BE87AD87AF3FEFEFBE0736
:1013900009F09DCF3D813F3109F44CC0FA856F2F94
:1013A00070E080E090E00E94D0239B01AC0160E0FF
:1013B00070E080E89FEB0E94E9246B017C012D81A5
:1013C000622F70E06F507109882777FD8095982F04
:1013D0000E94D2239B01AC0160E070E080E090E4C9
:1013E0000E94E9249B01AC01C701B6010E9486243A
:1013F0006B017C0120E030E040E85FE3C501B4010F
:101400000E94CF229B01AC01C701B6010E94862435
:10141000D1016D937D938D939C931397B4E02B0E24
:10142000311CEE81FF812B853C85E217F30709F023
:1014300023CFC5CE4A8541111CC080E090EEAFE7B6
:10144000B7E4F10180839183A283B383E7CF20E0E7
:1014500030E093E1929FF001939FF00D1124EA0F89
:10146000FB1F482F50E09281491B51095683458349
:10147000CFCE413009F092CF80E090EEAFE7B7ECED
:10148000F10180839183A283B383C8CF20E030E051
:101490005FCE9A013327B2CE2F923F924F925F9246
:1014A0006F927F928F929F92AF92BF92CF92DF9274
:1014B000EF92FF920F931F93CF93DF9300D01F9271
:1014C000CDB7DEB780910001909101019B838A83A3
:1014D000DC01AD55BD4FFC01EC55FD4F9C91808169
:1014E0009817B9F00E943D08E0910001F0910101C8
:1014F000FB83EA83ED55FD4F808190E001968F706C
:1015000099278083EA81FB81EC55FD4F90819813E8
:10151000E9CFEA81FB81E458FE4F208031800A81C7
:101520001B810E561E4FB101882777FD8095982F9D
:101530000E94D22327E137EB41ED58E30E94862435
:101540006B017C0122E739EF4FE75FE3F80160812F
:101550007181828193810E9486249B01AC01C70125
:10156000B6010E94CF22F801608371838283938346
:10157000121413047CF10A811B8102571E4F22E7CB
:1015800039EF4FE75FE3F8016081718182819381D8
:101590000E94862420E030E0A9010E94CF22F801B9
:1015A00060837183828393830F900F900F90DF91FC
:1015B000CF911F910F91FF90EF90DF90CF90BF9050
:1015C000AF909F908F907F906F905F904F903F90E3
:1015D0002F9008951982412C512C32015301420160
:1015E00080E090E0F3E1F89F8001F99F100D112455
:1015F0008A819B81080F191FF801628170E080E0E9
:1016000090E00E94D0239B01AC0160E070E080E894
:101610009FE30E9437236B017C01F801648170E035
:1016200080E090E00E94D0239B01AC01C701B6018D
:101630000E9486249B01AC01C501B4010E94CF2207
:101640004B015C01A7019601C301B2010E94CF22A8
:101650002B013C01F981FF5FF9838F2F90E0821508
:1016600093050CF4BFCF0A811B8102571E4FA301C3
:101670009201C501B4010E94372327E137EB41ED08
:1016800058E30E9486246B017C0122E739EF4FE783
:101690005FE3F80160817181828193810E948624D9
:1016A0009B01AC01C701B6010E94CF22F801608303
:1016B00071838283938378CFEF92FF920F931F936E
:1016C000CF93DF93209100013091010189010458EB
:1016D0001E4FF801F080FA94F7FC34C053E1E52E78
:1016E0008091E0039091E103A091E203B091E303C4
:1016F000A7015403E0011124C20FD31F4F8558895D
:1017000069897A89841B950BA60BB70B81349105E7
:10171000A105B105A0F0F801808191810197E89EB3
:10172000F001E99EF00D1124E20FF31FDE014E2DB2
:1017300001900D924A95E1F7F80191838083FA9424
:10174000F7FECECFDF91CF911F910F91FF90EF90D9
:101750000895EF92FF920F931F93CF93DF93C09161
:101760000001D0910101FE01EE55FE4F81E0808322
:10177000FE01E156FE4F10823091160420911704AD
:10178000CE018A569E4FFC013083FE01E956FE4F82
:101790002083FE01E856FE4FDE01A458BE4F2C9177
:1017A0002083FE01E356FE4FDE01A258BE4F2C916E
:1017B0002083FE01EF57FE4F00811181228133818A
:1017C000B901A801F7E17595679557954795FA9581
:1017D000D1F750E0DA01AF57B109A131B10514F0EA
:1017E000A0E1B0E0B901A8016F777727EDE0769529
:1017F000679557954795EA95D1F77E01F7E6EF1A79
:10180000FEEFFF0AA13FEFEFBE0714F4A1EFBFEF19
:10181000A15FAA0FAA0F330F000B102F9801079595
:10182000002707950A2B052BF7010083FE01E556DB
:10183000FE4F4083FE01EB57FE4F00811181228154
:101840003381B901A801A7E175956795579547952B
:10185000AA95D1F750E0DA01AF57B109A131B1052E
:1018600014F0A0E1B0E0B901A8016F777727EDE0AF
:101870007695679557954795EA95D1F77E01F6E6F7
:10188000EF1AFEEFFF0AA13FEFEFBE0714F4A1EF3E
:10189000BFEFA15FAA0FAA0F330F000B102F980103
:1018A0000795002707950A2B052BF7010083FE01FA
:1018B000E456FE4F40830E94201EC056DE4F99839F
:1018C0008883E0910001F0910101EE55FE4F1082F6
:1018D000DF91CF911F910F91FF90EF900895BF92EC
:1018E000CF92DF92EF92FF920F931F93CF93DF93EC
:1018F000C0910001D0910101FE01EE56FE4FDE01C4
:10190000A257BE4F2D913D914D915C9160817181A7
:10191000828193810E9437232DEC3CEC4CE45FE301
:101920000E94332387FFFEC0FE01E458FE4F008172
:101930001181101611060CF000C18B818111F2C0CB
:1019400020E033E10AC0389FF001399FF00D1124E7
:10195000EC0FFD1F83818111E5C02F5F822F90E086
:101960008017910784F320E030E040E850E4FE0166
:10197000EF57FE4F60817181828193810E948224A2
:1019800018160CF0F7C0F12CE12C80E090E0A3E1F8
:10199000DA2E07C0F3948F2D90E0801791070CF09A
:1019A00066C0D89EF001D99EF00D1124EC0FFD1FEA
:1019B00020E030E040E850E46781708581859285C1
:1019C0000E94822418160CF4E39481E0E812E2CF1E
:1019D000F12CE12C80E090E043E1D42E07C0F39499
:1019E0008F2D90E0801791070CF09CC0D89EF001DD
:1019F000D99EF00D1124EC0FFD1F20E030E040E8EF
:101A000050E467817085818592850E948224181632
:101A10000CF4E394E1E0EE12E2CFD12CBB24BA94B3
:101A200080E090E033E1C32EC89E7001C99EF00CA7
:101A30001124EC0EFD1E20E030E040E850E4F701F8
:101A400067817085818592850E94822418162CF406
:101A5000F70182818B1508F4B82ED3948D2D90E078
:101A6000801791070CF3FDE2FB1508F05BC0FE0147
:101A7000E757FE4F80819181A281B381892B8A2B08
:101A80008B2B09F04FC0D12CBB24BA9480E090E09E
:101A900023E1C22EC89E7001C99EF00C1124EC0EE9
:101AA000FD1E20E030E040E850E4F70167817085DA
:101AB000818592850E94822418162CF4F701828178
:101AC0008B1508F4B82ED3948D2D90E080179107D4
:101AD0000CF3FDE2FB1508F44BC0F12CE12C80E087
:101AE00090E0B3E1DB2E07C0F3948F2D90E08017D8
:101AF00091070CF03DC0D89EF001D99EF00D112445
:101B0000EC0FFD1F20E030E040E850E46781708575
:101B1000818592850E94822418160CF4E39482E059
:101B2000E812E2CF80E0DF91CF911F910F91FF90FB
:101B3000EF90DF90CF90BF90089520E030E040E834
:101B400050E4FE01EF57FE4F6081718182819381E5
:101B50000E948224181674F4C757DE4F8881998139
:101B6000AA81BB81892B8A2B8B2BE1F6012BD1F229
:101B700081E0D9CFFE01E757FE4F80819181A2819C
:101B8000B381892B8A2B8B2B69F6101611060CF466
:101B90007ACFECCFBF92CF92DF92EF92FF920F936A
:101BA0001F93CF93DF93C0910001D0910101FE01FB
:101BB000E458FE4F00811181101611060CF0BAC0D6
:101BC00020E030E040E05FEF80E090E063E1689F7C
:101BD000F001699FF00D1124EC0FFD1F8281851724
:101BE00030F49481923018F020813181582F4F5F6A
:101BF000842F90E08017910754F36881798126172C
:101C0000370709F4A2C0A0E0B3E10DC0B89FF0010E
:101C1000B99FF00D1124EC0FFD1F40815181241755
:101C2000350709F494C0AF5F8A2F90E080179107C1
:101C30006CF3AFEF60E073E10DC0789FF001799F26
:101C4000F00D1124EC0FFD1F408151812417350741
:101C500009F48CC06F5F862F90E0801791076CF3BA
:101C6000AD3308F067C0FE01E257FE4F208131819D
:101C700042815381FE01EE56FE4F60817181828167
:101C800093810E9437232DEC3CEC4CE45FE30E94EF
:101C9000332387FF4FC0D12CBB24BA9480E090E05F
:101CA00063E1C62EC89E7001C99EF00C1124EC0E93
:101CB000FD1E20E030E040E850E4F70167817085C8
:101CC000818592850E94822418162CF4F701828166
:101CD0008B1508F4B82ED3948D2D90E080179107C2
:101CE0000CF3FBE2FB1508F44DC0F12CE12C80E075
:101CF00090E053E1D52E07C0F3948F2D90E080172C
:101D000091070CF03FC0D89EF001D99EF00D112430
:101D1000EC0FFD1F20E030E040E850E46781708563
:101D2000818592850E94822418160CF4E39482E047
:101D3000E812E2CF81E0DF91CF911F910F91FF90E8
:101D4000EF90DF90CF90BF90089580E090E043E166
:101D5000489FF001499FF00D1124EC0FFD1FA28157
:101D60006217730709F066CF80E090E023E1289FB7
:101D7000F001299FF00D1124EC0FFD1F83818111CB
:101D8000D9CF6ECF81E0012BB1F280E0D4CFBF92EA
:101D9000CF92DF92EF92FF920F931F93CF93DF9337
:101DA000C0910001D0910101FE01E458FE4F008175
:101DB0001181101611060CF06FC0E12CF12C20E0FF
:101DC0003FEF80E090E043E1489FF001499FF00D34
:101DD0001124EC0FFD1F8281831730F4948192301F
:101DE00018F0E080F180382F2F5F822F90E080176D
:101DF000910754F3C880D980EC14FD0409F457C04E
:101E000040E053E10DC0589FF001599FF00D11249F
:101E1000EC0FFD1F20813181E216F30609F449C061
:101E20004F5F842F90E0801791076CF3BB24BA9426
:101E3000FE01E257FE4F2081318142815381FE0134
:101E4000EE56FE4F60817181828193810E9437231B
:101E50002DEC3CEC4CE45FE30E94332387FF1CC075
:101E6000EC14FD0481F140E053E10CC0589FF001F7
:101E7000599FF00D1124EC0FFD1F20813181E216D6
:101E8000F30619F14F5F842F90E08017910774F3E8
:101E900081E09CE39B1508F080E0DF91CF911F91DA
:101EA0000F91FF90EF90DF90CF90BF90089580E06A
:101EB00090E023E1289FF001299FF00D1124EC0F01
:101EC000FD1FB280B5CF80E090E023E1289FF001B4
:101ED000299FF00D1124EC0FFD1F83818111DCCFB0
:101EE000D7CF0F931F93CF93DF93A0910001B091B1
:101EF0000101FD01E458FE4F8081918118161906F9
:101F00000CF07DC040E050E060E07FEF20E030E08A
:101F1000C3E1C29FF001C39FF00D1124EA0FFB1F24
:101F20002281271730F43481323018F040815181FA
:101F3000722F6F5F262F30E02817390754F3CD91A9
:101F4000DC9111974C175D0799F110E003E10CC08B
:101F5000029FF001039FF00D1124EA0FFB1F608127
:101F600071814617570731F11F5F212F30E0281785
:101F7000390774F31FEFC0E0D3E10CC0D29FF0012A
:101F8000D39FF00D1124EA0FFB1F6081718146176A
:101F90005707F1F0CF5F2C2F30E02817390774F383
:101FA00081E01E3230F5DF91CF911F910F9108959E
:101FB00020E030E063E1629FF001639FF00D1124A7
:101FC000EA0FFB1F12814C175D07A9F620E030E0F5
:101FD00083E1829FF001839FF00D1124EA0FFB1F24
:101FE00083818823E9F281E0DF91CF911F910F91E6
:101FF000089580E0DF91CF911F910F910895892B73
:1020000091F31FEFCDCFBF92CF92DF92EF92FF926D
:102010000F931F93CF93DF93C0910001D0910101E3
:10202000FE01E258FE4F8081813009F436C108F488
:10203000A8C0823009F09BC0FE01E458FE4F8081A9
:102040009181181619060CF0C9C140E050E060E01B
:102050007FEF20E030E0A3E1A29FF001A39FF00D0D
:102060001124EC0FFD1F2281271730F43481323008
:1020700018F040815181722F6F5F262F30E02817B2
:10208000390754F3688179814617570709F431C23B
:10209000A0E0B3E10EC0B29FF001B39FF00D112498
:1020A000EC0FFD1F0190F081E02DE417F50709F416
:1020B00022C2AF5F2A2F30E02817390764F31FEFE1
:1020C000A0E0B3E10EC0B29FF001B39FF00D112468
:1020D000EC0FFD1F0190F081E02DE417F50709F4E6
:1020E00019C2AF5F2A2F30E02817390764F31E3278
:1020F00008F477C1A0E0B0E040E05FEF20E030E01E
:1021000013E1129FF001139FF00D1124EC0FFD1F3E
:102110002281251730F43481323018F0A081B1814A
:10212000522F4F5F242F30E02817390754F3A6179A
:10213000B70709F432C260E073E10DC0729FF0018D
:10214000739FF00D1124EC0FFD1F40815181A417E6
:10215000B50709F424C26F5F262F30E0281739072E
:102160006CF3FE01E357FE4F808181112CC2DF9199
:10217000CF911F910F91FF90EF90DF90CF90BF9084
:1021800008950E946F0C81113DC1FE01E458FE4F7D
:1021900000811181101611060CF0C7C2E12CF12C40
:1021A00020E03FEF80E090E043E1489FF001499F4D
:1021B000F00D1124EC0FFD1F8281831730F4948100
:1021C000923018F0E080F180382F2F5F822F90E05E
:1021D0008017910754F3C880D980EC14FD0409F4EA
:1021E0007CC140E053E10DC0589FF001599FF00DB4
:1021F0001124EC0FFD1F208131812E153F0509F4BC
:102200006EC14F5F842F90E0801791076CF3BB2461
:10221000BA94FE01E257FE4F208131814281538101
:10222000FE01EE56FE4F60817181828193810E9492
:1022300037232DEC3CEC4CE45FE30E94332387FD15
:1022400075C110161106B4F48B8181113BC120E0D9
:1022500033E10AC0389FF001399FF00D1124EC0FD3
:10226000FD1F838181112EC12F5F822F90E0801787
:10227000910784F3C757DE4F88819981AA81BB817A
:102280000097A105B10509F472CF0197A109B10921
:1022900088839983AA83BB836ACF0E94CA0D811168
:1022A000A0C0C458DE4F88819981181619060CF019
:1022B0005ECF0E949818182F0E949818A0910001D4
:1022C000B0910101FD01E458FE4F208131811216C9
:1022D00013060CF071C0C0E0D0E090E06FEF40E07A
:1022E00050E073E1749FF001759FF00D1124EA0F27
:1022F000FB1F4281461730F45481523018F0C081E0
:10230000D181642F9F5F492F50E04217530754F348
:10231000ED90FC901197CE15DF0509F487C190E090
:1023200003E10DC0049FF001059FF00D1124EA0F99
:10233000FB1F60817181C617D70709F479C19F5FC0
:10234000492F50E0421753076CF360E070E040E023
:102350005FEF80E090E0C3E1C89FF001C99FF00DFE
:102360001124EA0FFB1F8281851730F4948192308B
:1023700018F060817181582F4F5F842F90E0821791
:10238000930754F3E616F70609F42BC1C0E0D3E136
:102390000DC0D89FF001D99FF00D1124EA0FFB1F4B
:1023A000408151816417750709F41DC1CF5F8C2FDF
:1023B00090E0821793076CF3A058BE4FCC91C230C7
:1023C00009F4A3C181E00E947A16E0910001F09126
:1023D0000101E158FE4F81E08083C9CE892B09F0CD
:1023E000C0CE60E080E00E94F417809100019091DF
:1023F0000101FC01E158FE4F1082FC01E258FE4F42
:102400001082B5CE0E94F917A0910001B091010190
:10241000FD01E458FE4F2081318112161306D4F5D8
:1024200060E070E040E05FEF80E090E0C3E1C89FD3
:10243000F001C99FF00D1124EA0FFB1F828185175F
:1024400030F49481923018F060817181582F4F5F81
:10245000842F90E08217930754F38D919C911197EC
:102460006817790709F42AC1C0E0D3E10DC0D89FED
:10247000F001D99FF00D1124EA0FFB1F408151811B
:102480006417750709F41CC1CF5F8C2F90E0821789
:1024900093076CF36091060480E00E94F417C091EA
:1024A0000001D0910101FE01E158FE4F82E08083DE
:1024B000FE01E058FE4F8083FE01E258FE4F81E0AE
:1024C000808363CEC757DE4F80E49FE1A0E0B0E099
:1024D00088839983AA83BB834ACE80E090E023E17E
:1024E000289FF001299FF00D1124EC0FFD1FB280F1
:1024F00090CE20E030E0A3E1A29FF001A39FF00D79
:102500001124EC0FFD1F12814617570709F0D8CD93
:1025100020E030E043E1429FF001439FF00D1124A1
:10252000EC0FFD1F238121115CCFE1CDEC14FD04E4
:1025300009F4A9C040E053E10DC0589FF001599F34
:10254000F00D1124EC0FFD1F20813181E216F306FE
:1025500009F49BC04F5F842F90E0801791076CF3C4
:102560008CE38B1508F070CEFE01E258FE4F82E03E
:102570008083C158DE4F88830E947A16C091000183
:10258000D0910101FE01E357FE4F81E08083FE01FF
:10259000E458FE4F0081118154CE20E030E083E109
:1025A000829FF001839FF00D1124EC0FFD1F8581A8
:1025B0009681FE01E357FE4F2081222379F0181601
:1025C00019060CF0D4CD1082C158DE4F88818130BD
:1025D00009F48FC0823009F0CACDF4CE97FFC7CD81
:1025E000FACE80E090E023E1289FF001299FF00DD2
:1025F0001124EA0FFB1FC2818C2F90E08D9794F479
:10260000A058BE4F8C91823009F44BC082E00E94EA
:102610007A16A0910001B0910101FD01E158FE4F31
:1026200082E08083CD3208F4A2CDC6CE40E050E0F7
:1026300093E1949FF001959FF00D1124EA0FFB1F89
:102640009281983208F081CE1D3709F07ECE89370D
:1026500008F47BCE6DE78DE70E94F41786E990E0E1
:102660000E94E917A0910001B0910101FD01E45819
:10267000FE4F20813181121613060CF09DCEED9095
:10268000FC90119762CE80E090E023E1289FF0015A
:10269000299FF00D1124EC0FFD1F83818111D4CDF2
:1026A0005FCF81E00E947A16A0910001B0910101F4
:1026B000FD01E158FE4F81E08083B4CF80E090E0DF
:1026C00023E1289FF001299FF00D1124EA0FFB1F41
:1026D00082818D3208F0DECE0E9498188F3700F587
:1026E00060E08DE70E94F41784EF91E00E94E91703
:1026F000D1CE82E00E947A16E0910001F0910101B2
:10270000E158FE4F82E0808332CD82E00E947A164B
:10271000E0910001F0910101E158FE4FC08327CD07
:102720006DE780E00E94F417DFCFFE01E257FE4F15
:102730002081318142815381FE01EE56FE4F60813E
:102740007181828193810E9437232DEC3CEC4CE413
:102750005FE30E94332387FD8DCD73CD2F923F928F
:102760004F925F926F927F928F929F92AF92BF92A1
:10277000CF92DF92EF92FF920F931F93CF93DF934D
:1027800000D000D0CDB7DEB70E944C0A8091000186
:1027900090910101FC01E258FE4F2081215022302E
:1027A00050F0FC01E458FE4F808191811816190603
:1027B00014F40E947B058091E0039091E103A091C5
:1027C000E203B091E3038A3F9105A105B10509F445
:1027D000CBC18091E0039091E103A091E203B0911D
:1027E000E30389379946A105B10508F0B6C1809188
:1027F000000190910101FC01E258FE4F208121303F
:1028000009F430C2223009F431C2FC01EF57FE4F07
:10281000C080D180E280F38020E030E040E850E4E6
:10282000C701B6010E94822418160CF031C18CE059
:102830000E94E31A4091160450911704A0910001E0
:10284000B0910101FD01E458FE4F20813181121643
:102850001306ECF48D919C9111974817590709F4D0
:102860005DC160E073E10DC0789FF001799FF00DCC
:102870001124EA0FFB1F808191814817590709F441
:102880004DC16F5F862F90E0821793076CF36A014A
:102890004D010FEF020F07FD36C013E15401F4E8BC
:1028A000AF1AFEEFBF0A8091E0039091E103A0917F
:1028B000E203B091E303010370011124E80CF91C59
:1028C000F7014785508961897289841B950BA60B96
:1028D000B70B81349105A105B10590F02150310964
:1028E000129FF001139FF00D1124E80DF91DD7017F
:1028F000812F01900D928A95E1F7D5012D933C939C
:10290000015007FFD0CF81E0F401EE55FE4F8083E8
:10291000F401E156FE4F1082C4018A569E4FFC011D
:10292000C082F401E956FE4FD082F401E856FE4F12
:102930002083F401E258FE4F2081F401E356FE4F5C
:102940002083F401EF57FE4F0081118122813381F2
:10295000B901A801A7E17595679557954795AA957F
:10296000D1F750E0DA01AF57B109A131B10514F048
:10297000A0E1B0E0B901A8016F777727FDE0769577
:10298000679557954795FA95D1F77401F7E6EF1AD1
:10299000FEEFFF0AA13FEFEFBE0714F4A1EFBFEF78
:1029A000A15FAA0FAA0F330F000B102F98010795F4
:1029B000002707950A2B052BD7010C93F401E55648
:1029C000FE4F4083F401EB57FE4F008111812281BD
:1029D0003381B901A801E7E175956795579547954A
:1029E000EA95D1F750E0DA01AF57B109A131B1054D
:1029F00014F0A0E1B0E0B901A8016F777727FDE0FE
:102A00007695679557954795FA95D1F77401E6E65F
:102A1000EE1AEEEFFE0AA13FFFEFBF0714F4A1EF9D
:102A2000BFEFA15FAA0FAA0F330F000B102F980161
:102A30000795002707950A2B052BD7010C93F40166
:102A4000E456FE4F40830E94201EF401E056FE4FE4
:102A500091838083E0910001F0910101EE55FE4FDA
:102A600010820F900F900F900F90DF91CF911F91D8
:102A70000F91FF90EF90DF90CF90BF90AF909F901D
:102A80008F907F906F905F904F903F902F90089520
:102A900020E030E040E450E4C701B6010E94822407
:102AA000181674F120E030E040E050E4C701B601B0
:102AB0000E94822418165CF420E030E040E450E4E8
:102AC000C701B6010E94332318160CF049C020E05C
:102AD00030E040E85FE3C701B6010E948224181687
:102AE0005CF420E030E040E050E4C701B6010E9411
:102AF000332318160CF0BEC080E00E94E31A9ACE71
:102B000020E030E040E850E4C701B6010E943323E2
:102B1000181644F28CE30E94E31A8CCE0E94981897
:102B2000182F0E949818212F30E0322F2227282BAF
:102B300030931704209316048FE00E94E31A8090CC
:102B4000000190900101F401E458FE4F2081318191
:102B5000C0901604D09017049CCE0E94031047CE5C
:102B600080E30E94E31A66CE0091000110910101FA
:102B7000F801E458FE4F208131813A83298378019E
:102B80003EE6E31A3EEFF30AA981BA81BD01882728
:102B900077FD8095982F0E94D223F701608371837F
:102BA0008283938329813A81121613060CF066C042
:102BB000312C412C512C32015301420180E090E034
:102BC000B3E12B2E289ED001299EB00D1124A00F19
:102BD000B11FBC83AB8312966C9170E080E090E0F3
:102BE0000E94D0239B01AC0160E070E080E89FE38D
:102BF0000E9437236B017C01EB81FC81648170E0D2
:102C000080E090E00E94D0239B01AC01C701B60197
:102C10000E9486249B01AC01C501B4010E94CF2211
:102C20004B015C01A7019601C301B2010E94CF22B2
:102C30002B013C013394832D90E029813A81821746
:102C400093070CF4BFCF02571E4FA3019201C50199
:102C5000B4010E943723D8016D937D938D939C938B
:102C60001397B7CD8FE30E94E31AE4CD83E00E946F
:102C7000E31AE0CD83E30E94E31ADCCD412C512C12
:102C8000320153014201DFCFCF93DF93C82FD62FFC
:102C900081111AC0662391F080E09091B40061E048
:102CA00091111EC06195811103C0662339F06FEF49
:102CB0000E94F4178FE090E00E94E9176D2F8C2F8F
:102CC000DF91CF910C94F4179091B30081E09111B2
:102CD0000CC08195D111E1CF882381F360E0E8CF6A
:102CE00060E06195882309F3E3CF80E08195DD23DF
:102CF00099F3D3CFCF93DF938130D9F1A0F1823014
:102D0000C9F0833069F5D0911904C0911804CC231F
:102D100009F445C09091B30081E0911180E0819564
:102D2000D11140C009F055C06D2F8C2FDF91CF918C
:102D30000C94F417C0910604CC2361F08091B40088
:102D4000811108C06FEF80E00E94F4178FE090E0DF
:102D50000E94E9176C2F80E0DF91CF910C94F4175B
:102D6000DF91CF91089560E080E0DF91CF910C94E6
:102D7000F417C0911A04CC2361F08091B300811143
:102D800008C060E08FEF0E94F4178FE090E00E948F
:102D9000E91760E08C2FDF91CF910C94F417DD23BD
:102DA00019F280E09091B40061E0911160E06195CA
:102DB000811103C009F4B8CF6FEF0E94F4178FE0C0
:102DC00090E00E94E9176D2F8C2FDF91CF910C942A
:102DD000F41760E0F2CF089580E090E00895089540
:102DE000DF92EF92FF920F931F93CF93DF93F894AC
:102DF00014B817B81AB815B818B81BB8529A5A9A16
:102E000014BC85E085BD8FEF87BD22E020936E0066
:102E100010928000109281008FE89BE090938900CF
:102E20008093880020936F005398239881EA8093C1
:102E3000B0002093B1001092B4001092B3008BE068
:102E400080BF83E080937F0086E080937C0083E8EE
:102E500080937A0080917A00806480937A008091D8
:102E60007A0086FDFCCF10927C0083EA80937A0082
:102E700081E080937B0081E090E00E9457288F3FA3
:102E800011F0809366001092E403C1E0C093BD038B
:102E9000C09301041092DB031092150480E990E0C6
:102EA0000E9457288093DA038091DA03887311F027
:102EB000C093DA0310920504109204048FEF90E09F
:102EC00090930304809302041092E0031092E103B4
:102ED0001092E2031092E30381E08093170182E4F1
:102EE0009FE0909314048093130480EB90E00E9481
:102EF0005728C82F81EB90E00E9457282C2F30E0F4
:102F0000382B309317042093160485E090E00E943C
:102F1000572880931A0489E090E00E9457288093F4
:102F200006048CE090E00E9457288093180484E106
:102F300090E00E9457288093190405EE13E05EEBA1
:102F4000E52E53E0F52EC0E2D0E0CE010E945728D6
:102F5000D82ECE0101960E9457282D2D30E0322F19
:102F60002227282BF801219331938F01CE01C0969F
:102F70000E945728D82ECE01C1960E9457282D2D89
:102F800030E0322F2227282BF701219331937F0144
:102F90002296CC33D105C9F67894DF91CF911F9159
:102FA0000F91FF90EF90DF9008951F920F920FB650
:102FB0000F9211248F9388E10FB6F89480936000EC
:102FC000109260000FBE8F910F900FBE0F901F9058
:102FD0001895009741F0EFECF7E03197F1F700C05A
:102FE00000000197F6CF08958093B3006093B4007A
:102FF00008958FEF8093B3008093B4008FE090E04A
:103000000C94E9178091E40381111EC0F89487E0C5
:1030100080937C0083E880937A0080917A008064BA
:1030200080937A0080917A0086FDFCCF80917800B1
:103030009091790010927C0023EA20937A0021E09D
:1030400020937B00789408958FEF9FEF08958091EF
:10305000E40381111EC0F89488EC80937C0087E81B
:1030600080937A0080917A00806480937A008091C6
:103070007A0086FDFCCF80917800909179001092C3
:103080007C0023EA20937A0021E020937B0078944F
:1030900008958FEF9FEF0895CF9320E030E080E018
:1030A000F3EAA1E0B6E0C3E841E050E090E0F89434
:1030B000B0937C00C0937A0060917A006064609362
:1030C0007A0060917A0066FDFCCF60917800709183
:1030D0007900E62FE17070917A00706470937A0045
:1030E00060917A0066FDFCCF609178007091790064
:1030F00010927C00F0937A00A0937B0078949F5FFD
:103100006170E61751F0EE2359F0BA01022E01C0AA
:10311000660F0A94EAF7862B03C0903841F6F3CF86
:103120002F5F3F4F2830310509F0C0CFCF91089570
:103130002091020138E0239FC0011124922F98278B
:103140008091140121E0280F209314018695869523
:103150008927929596959770892780930201089503
:103160008093020108958091E403811116C0F894C0
:1031700086E080937C0083E880937A0080917A00D7
:10318000806480937A0080917A0086FDFCCF8091E4
:10319000780090917900789408958FEF9FEF0895CB
:1031A0002F923F924F925F926F927F928F929F9257
:1031B000AF92BF92CF92DF92EF92FF920F931F9345
:1031C000CF93DF9300D000D0CDB7DEB79A83898349
:1031D000FC010280F381E02DFC83EB83E43823E0E3
:1031E000F2070CF087C08091BE039091BF038E1749
:1031F0009F0708F477C0E0ECF3E033243394819127
:1032000091912B813C818217930730F033943EE0FB
:103210003312F5CFBDE03B2EE32DF0E0DF01AA0F26
:10322000BB1FA254BC4F0D911C91EE0FFF1FE45425
:10323000FC4F80819181B801681B790B80E090E0A0
:103240000E94D0239B01AC010E94CF226B017C0124
:10325000EB81FC81BF01882777FD8095982F0E9424
:10326000D2234B015C01B80180E090E00E94D023A2
:103270002B013C01632D70E080E090E00E94D023A0
:1032800020E030E040E05FE30E94862420E030E070
:10329000A9010E94CF229B01AC01C701B6010E9487
:1032A00086249B01AC01C301B2010E94CE229B0186
:1032B000AC01C501B4010E94CE2220E030E040E222
:1032C00051E40E9486240E949F238B01C701B6010E
:1032D0000E949F23AB01BC01C801BA010E94692270
:1032E000762E01C0712C2B813C812D3B32400CF499
:1032F000D2C002C077247A94E981FA81A080B1809B
:103300008091E5039091E6038A159B0508F4C6C0F9
:10331000E7EEF3E081E090E0682E019111910A154B
:103320001B0508F45AC001968E309105A9F71AE5DD
:10333000FFEF7F1609F44EC02B813C81B90188272D
:1033400077FD8095982F0E94D2236B017C01672D19
:1033500070E080E090E00E94D0234B015C01A70167
:10336000960160E070E081E694E40E94CE229B0129
:10337000AC01C501B4010E9486244B015C01612FA0
:1033800070E080E090E00E94D0232B013C0120E01F
:1033900030E04FE254E4C701B6010E94CE229B0107
:1033A000AC01C301B2010E9486249B01AC01C5019E
:1033B000B4010E94CF2220E030E048E453E40E94B0
:1033C000372320E030E044E052E40E94CF220E9404
:1033D000A42366C061E2610F63C0FC01EE0FFF1F12
:1033E000ED51FC4F80819181B801681B790B80E021
:1033F00090E00E94D0239B01AC010E94CF226B0180
:103400007C01B501882777FD8095982F0E94D223F3
:103410004B015C01B80180E090E00E94D0231B01C9
:103420002C01662D70E080E090E00E94D02320E027
:1034300030E040E05FE30E94862420E030E0A90114
:103440000E94CF229B01AC01C701B6010E948624D5
:103450009B01AC01C201B1010E94CE229B01AC01D3
:10346000C501B4010E94CE2220E030E040E251E4E8
:103470000E9486240E949F238B01C701B6010E94EF
:103480009F23AB01BC01C801BA010E946922162F1B
:103490006F3F09F04DCF61E2670D02C010E048CFE9
:1034A000862F0F900F900F900F90DF91CF911F916B
:1034B0000F91FF90EF90DF90CF90BF90AF909F90D3
:1034C0008F907F906F905F904F903F902F900895D6
:1034D0001F920F920FB60F9211242F933F934F9389
:1034E0005F936F937F938F939F93AF93BF93EF936C
:1034F000FF9380910404909105042091020430917F
:103500000304820F931F90930504809304048FEFAC
:1035100090E090930304809302048FEF87BD809125
:10352000E0039091E103A091E203B091E3030196DF
:10353000A11DB11D8093E0039093E103A093E203EA
:10354000B093E3038091E40381112CC080911304B4
:10355000909114042091040430910504821793077C
:1035600008F5809117018430E9F4E0910501F091AC
:10357000060109950097B1F00E94391E882351F089
:10358000E0910301F0910401099510920504109255
:10359000040408C00E949C269927909303048093FA
:1035A000020487BDFF91EF91BF91AF919F918F91E1
:1035B0007F916F915F914F913F912F910F900FBE2F
:1035C0000F901F90189580FF02C0559A01C0559822
:1035D00081FF02C0549A01C0549882FF02C03B9AF6
:1035E00001C03B9883FF02C03A9A01C03A9884FF19
:1035F00002C03D9A01C03D9885FF02C03C9A0895E3
:103600003C980895EC018B01C12CDD24DA9484E010
:10361000B82E98E1E92EF12C29E2A22E2091170173
:10362000E22FF0E0E730F105C8F7EC5CFF4F0C94B7
:10363000B422F89480B7877F80BF80917A008F771B
:1036400080937A0014B817B81AB815B818B81BB810
:103650000FB6F894A895E09260000FBEA0926000AB
:103660008091600080648093600083B7817F846074
:1036700083BFF89483B7816083BF7894889583B7BC
:103680008E7F83BF78941092E403529A5A9A809165
:103690007A00806880937A0087E592E00197F1F7DD
:1036A00000C0000080B7886180BF8FE30E94E31AEA
:1036B000EFE1FEE43197F1F700C000008091E403F0
:1036C000882309F450C083E00E94E31AFFEF20E74B
:1036D00082E0F15020408040E1F700C0000043C08C
:1036E0008CE00E94E31AEFECF7E03197F1F700C0AD
:1036F000000080E00E94E31AFFEF21EE84E0F15029
:1037000020408040E1F72CC00E94B3188B3AE2E0E1
:103710009E0724F08CE00E94E31A80CF8938F2E003
:103720009F0714F080E3F7CF8736924014F08FE0C4
:10373000F2CF83E0F0CF489916C081E00E94E31AEF
:103740008FEC97E00197F1F700C0000080E00E9445
:10375000E31A9FEFE1EEF4E09150E040F040E1F732
:1037600000C000005BCF80E0D6CFC11002C0FE01D8
:103770000995B0921701CC24C394F80109954ECF56
:1037800080911501811107C01092B3001092B4000E
:103790001092160143CF9091150180911601981750
:1037A00009F43CCF80911501809316018091150199
:1037B000813089F4D092B3001092B4008FE295E783
:1037C0000197F1F700C0000080911A048093B300C4
:1037D0001092B40023CF809115011092B300D092C3
:1037E000B400823059F4EFE2F5E73197F1F700C009
:1037F0000000809106041092B30010C0D092B30074
:10380000D092B4008FE295E70197F1F700C0000075
:1038100080911904909118049093B3008093B400A0
:10382000FDCE1F920F920FB60F9211248F939F938C
:1038300010928100109285001092840081E08093A4
:10384000BD03809301041092E40310927C0093EA7C
:1038500090937A0080937B009F918F910F900FBE81
:103860000F901F9018951F920F920FB60F92112470
:103870002F933F934F935F936F937F938F939F9378
:10388000AF93BF93CF93DF93EF93FF932091840087
:103890003091850041E04093E4038091BD0388238B
:1038A00021F11092850010928400409381001092C3
:1038B00015041092BD0380910104882309F4ADC161
:1038C00080917A0086FDFCCF8091780090917900FC
:1038D0009093DF038093DE0381E080937C0093EA82
:1038E00090937A0080937B0098C1C9018758910911
:1038F00084379940A0F010928100109285001092B8
:1039000084004093BD03409301041092E40310929D
:103910007C0083EA80937A0040937B007EC1265826
:103920003109A4EFB0E00E945A22AA27BB278830B1
:1039300060F421E030E001C0220F8A95EAF780911F
:103940001504822B8093150468C14093BD038091B8
:103950000104882341F180917A0086FDFCCF80919B
:103960007800909179009093DD038093DC031092AE
:103970007C0083EA80937A0081E080937B009091C1
:103980001504992359F0109281001092850010922D
:103990008400809301041092E4033FC1109201045B
:1039A0001092DB033AC18091DB03E82FF0E0E95F7E
:1039B000FB4F9091150490838F5F8093DB038C30D5
:1039C00009F02BC1109281001092850010928400A2
:1039D000409301041092E403C0911104D0911204A9
:1039E00087E094E00E94201EC817D90709F015C18E
:1039F0008091100487FD0AC0E0910701F091080151
:103A00006CED73E087E094E0099507C198E7980FA3
:103A1000933030F0539823981092B4001092B30072
:103A200090E0FC01E058F109EB30F10508F0F5C039
:103A3000E55CFF4F0C94B42280916E008D7F8093E3
:103A40006E0016BCE0E0F0E702C0E0E0F0E00995AF
:103A500010921701E2C081E0B2C085E0B0C082E000
:103A6000AEC080911701833009F4D7C0809117014F
:103A7000843009F4D2C0539A239A1092B400109261
:103A8000B30083E09CC080910704823009F44BC0EE
:103A900080F48823A9F0813009F082C08091080465
:103AA00090910904909317048093160410921501C5
:103AB00077C0833009F449C0843009F458C070C01D
:103AC00080911701863009F06BC06091160480EB7D
:103AD00090E00E945F286091170481EB90E00E94C3
:103AE0005F2860911A0485E090E00E945F28609151
:103AF000060489E090E00E945F28609118048CE041
:103B000090E00E945F286091190484E190E00E9497
:103B10005F28539823981092B4001092B30081E06C
:103B2000809317013DC09091150180910A04913056
:103B300021F490911A04981799F11092160191E0CE
:103B40009093150180931A042BC0909115018091D8
:103B50000B04923021F490910604981709F1109209
:103B6000160192E0909315018093060419C02091EC
:103B7000150180910D0490910C04233041F42091A3
:103B80001904281304C020911804291749F0109231
:103B9000160123E0209315019093180480931904D3
:103BA000809107048823C9F1809117018630A9F11B
:103BB000539A239A1092B4001092B30086E0809337
:103BC00017012BC080911701863081F0539A239AF8
:103BD0001092B4001092B30080E00E94E31A109299
:103BE00015011092160186E08093170181E090E0A4
:103BF0000090070402C0880F991F0A94E2F72091F1
:103C000016043091170482239323892B21F081E03D
:103C10008093150102C010921501FF91EF91DF9181
:103C2000CF91BF91AF919F918F917F916F915F9154
:103C30004F913F912F910F900FBE0F901F901895AD
:103C4000FC012AE08FEF9FEF31918327082E8295A8
:103C5000807F8025092E982F82958F700826869563
:103C600098278927880F880F880F8025215061F7B2
:103C700008950FB6F894A4B12091DA032A2B24B941
:103C800021E03091DA03203029F0000025B1232B08
:103C900025B904C000000000000000C000000000C2
:103CA0000000309525B1232325B92EEA2A95F1F796
:103CB0002BEE30B735FF0AC0A4B93091DA03309546
:103CC00025B1232325B90FBE80E0089500002A9571
:103CD00081F721E03091DA03203029F0000025B18E
:103CE000232B25B904C000000000000000C0000024
:103CF00000000000309525B1232325B9000024E5FC
:103D00002A95F1F7FC018CE0619170E0660F771F56
:103D1000616072609AE041E050E09A012623372307
:103D2000232B3091DA03203029F0000025B1232B1A
:103D300025B904C000000000000000C00000000021
:103D40000000309525B1232325B9000021E52A95EF
:103D5000F1F7440F551F9A9501F78A95A9F620B7F8
:103D6000206120BFA4B93091DA03309525B1232317
:103D700025B90FBE81E00895A3E1B0E0E2ECFEE1D9
:103D80000C947D227C011B016A01FC0117821682C2
:103D9000838181FF66C3BE016F5F7F4F4B01F701D7
:103DA0009381F10193FD859193FF81911F018823F8
:103DB00009F453C3853239F493FD859193FF8191C2
:103DC0001F01853239F4B70190E00E949A2756010D
:103DD0006501E5CF10E0512C20E02032A0F48B32B9
:103DE00069F030F4803259F0833269F420612CC0DC
:103DF0008D3239F0803339F4216026C0226024608E
:103E000023C0286021C027FD27C030ED380F3A308D
:103E100078F426FF06C0FAE01F9F300D1124132FFF
:103E200013C06AE0569E300D1124532E20620CC040
:103E30008E3221F426FD11C3206406C08C3611F4A5
:103E4000206802C0883641F4F10193FD859193FF0B
:103E500081911F018111C1CF9BEB980F933018F412
:103E60002061805E06C09BE9980F933008F0AAC1DC
:103E70002F7E26FF16E02F73722E853621F4F22F47
:103E8000F0647F2E08C0863621F4622F6068762E9B
:103E900002C01111115077FE07C01C3348F44424AE
:103EA0004394410E27E00BC0183030F4212F06C098
:103EB00027E04CE3442E03C027E017E0412C5601D5
:103EC00074E0A70EB11CF60160817181828193813B
:103ED000042DA4010E94AC266C01098100FF02C0E0
:103EE00003FF06C071FC07C072FC08C0612C08C04B
:103EF0003DE2632E05C02BE2622E02C090E2692EE5
:103F0000802F8C7099F1662011F084E001C083E06D
:103F1000851510F0512C0BC0581A73FC08C0B7015E
:103F200080E290E00E949A275A94C9F7F3CF662066
:103F300029F0B701862D90E00E949A2703FD03C067
:103F400002E111E002C00EE011E0F72DF0717F2ECA
:103F5000F8018491882309F476C271108052B70168
:103F600090E00E949A270F5F1F4FF2CF77FE0FC09D
:103F70004C0C04FF04C08A81813309F44A94141460
:103F800074F5F8E0F41578F588E0482E2CC076FC3E
:103F90002AC0812F90E08C159D059CF06CEFC61611
:103FA0006FEFD60674F0772D7068772E0AC0E2E0C6
:103FB000F0E0EC0FFD1FE10FF11D8081803319F45B
:103FC00011501111F4CF77FE0EC044244394410EDA
:103FD000812F90E0C816D9062CF41C1904C0442483
:103FE000439401C010E077FE07C01C141D043CF48C
:103FF00096012F5F3F4F05C025E030E002C021E071
:1040000030E0662011F02F5F3F4F112331F0412F38
:1040100050E04F5F5F4F240F351F452D50E02417B0
:10402000350714F4521A01C0512C872D897049F4B8
:10403000552039F0B70180E290E00E949A275A9407
:10404000F7CF662029F0B701862D90E00E949A27CD
:1040500073FC09C0552039F0B70180E390E00E945D
:104060009A275A94F7CF77FE5FC09C2D8D2DD7FEEF
:1040700002C090E080E0692E782E40E050E0C6015A
:10408000841991099D878C87960126193709280D77
:10409000391D812F90E0EE27FF27E81BF90BFF87E2
:1040A000EE87FFEF6F167F0669F4B7018EE290E0AE
:1040B0002B8B3A8B488B598B0E949A2759894889B8
:1040C0003A892B89C614D70454F06C857D85661512
:1040D00077052CF4F901E40FF51F818101C080E31D
:1040E00071E0671A71084F5F5F4FEE85FF856E16AE
:1040F0007F066CF0B70190E02B8B3A8B488B598B85
:104100000E949A272B893A8948895989CACF6C1409
:104110007D0439F49A81963318F4953311F404FF31
:1041200081E3B70190E04BC08A81813309F00F7EB3
:10413000B70190E00E949A27111105C074FE18C0C3
:1041400085E490E017C0B7018EE290E00E949A27C4
:1041500082E066246394680EF401E80FF11D80810B
:10416000B70190E00E949A27115041F3862DF1CFBC
:1041700085E690E0B7010E949A27D7FC05C0C114DC
:10418000D10439F404FF05C0D194C194D1088DE263
:1041900001C08BE2B70190E00E949A2780E36AE0B9
:1041A000C616D1042CF08F5FFAE0CF1AD108F7CFF2
:1041B000B70190E00E949A27B701C601C0960E94FD
:1041C0009A2741C1833631F0833779F0833509F07E
:1041D00058C021C0560172E0A70EB11CF6018081C3
:1041E000898301E010E0640114C05601F2E0AF0ED3
:1041F000B11CF601C080D18026FF03C0612F70E0A2
:1042000002C06FEF7FEFC6012B8B0E948F278C01BE
:104210002B892F7715C05601F2E0AF0EB11CF601C5
:10422000C080D18026FF03C0612F70E002C06FEF15
:104230007FEFC6012B8B0E9484278C012B8920687D
:10424000722E23FD1AC0852D90E008171907A8F4D7
:10425000B70180E290E00E949A275A94F4CFF601C9
:1042600077FC859177FE81916F01B70190E00E9404
:104270009A2751105A94015011090115110579F727
:10428000E2C0843611F0893651F5560127FF09C086
:10429000F4E0AF0EB11CF6016081718182819381DF
:1042A0000AC0F2E0AF0EB11CF6016081718188276F
:1042B00077FD8095982F022F0F7697FF08C0909575
:1042C0008095709561957F4F8F4F9F4F00682AE0D2
:1042D00030E0A4010E94F927C82EC8183EC0022F62
:1042E000853721F40F7E2AE030E01DC0097F8F362C
:1042F00091F018F4883559F0B0C0803719F088373C
:1043000011F0ABC0006104FF09C0046007C024FFC6
:1043100008C0066006C028E030E005C020E130E0BB
:1043200002C020E132E0560107FF09C0F4E0AF0E01
:10433000B11CF601608171818281938108C0F2E035
:10434000AF0EB11CF6016081718180E090E0A401A4
:104350000E94F927C82EC8180F7706FF0BC0202F20
:104360002E7FC11650F404FF0AC002FD08C0202FA2
:104370002E7E05C0DC2C202F03C0DC2C01C0D12EEA
:1043800024FF0DC0FE01EC0DF11D8081803311F47E
:10439000297E09C022FF06C0D394D39404C0822F83
:1043A000867809F0D39423FD13C020FF06C01C2D8E
:1043B000D51418F4150D1D19D52CD51468F4B701B2
:1043C00080E290E02B8B0E949A27D3942B89F5CF23
:1043D000D51410F45D1801C0512C24FF12C0B70190
:1043E00080E390E02B8B0E949A272B8922FF17C035
:1043F00021FF03C088E590E002C088E790E0B701A4
:104400000CC0822F867859F021FD02C080E201C0E5
:104410008BE227FD8DE2B70190E00E949A27C1163A
:1044200038F4B70180E390E00E949A271150F7CF4B
:10443000CA94F401EC0DF11D8081B70190E00E9457
:104440009A27C110F5CF552009F4C2CCB70180E2FC
:1044500090E00E949A275A94F6CFF70186819781BF
:1044600002C08FEF9FEF6396E2E10C9499220E94C5
:10447000F0168091000190910101FC01ED55FD4F76
:104480001082FC01EC55FD4F108280E491E0909386
:1044900008018093070180E391E0909306018093E7
:1044A00005016EEA73E180E891E00E94021B80E062
:1044B00090E00895A29FB001B39FC001A39F700D2B
:1044C000811D1124911DB29F700D811D1124911D1C
:1044D000089597FB072E16F4009407D077FD09D0B6
:1044E0000E94BA2207FC05D03EF4909581959F4F1B
:1044F0000895709561957F4F08952F923F924F9246
:104500005F926F927F928F929F92AF92BF92CF9263
:10451000DF92EF92FF920F931F93CF93DF93CDB76C
:10452000DEB7CA1BDB0B0FB6F894DEBF0FBECDBFE4
:1045300009942A88398848885F846E847D848C84B5
:104540009B84AA84B984C884DF80EE80FD800C81BE
:104550001B81AA81B981CE0FD11D0FB6F894DEBFA1
:104560000FBECDBFED010895EE0FFF1F0590F49132
:10457000E02D0994AA1BBB1B51E107C0AA1FBB1F5A
:10458000A617B70710F0A61BB70B881F991F5A95DF
:10459000A9F780959095BC01CD0108955058BB278F
:1045A000AA270ED075C166D130F06BD120F031F45E
:1045B0009F3F11F41EF45BC10EF4E095E7FB51C17F
:1045C000E92F77D180F3BA1762077307840795073D
:1045D00018F071F49EF58FC10EF4E0950B2EBA2FF2
:1045E000A02D0B01B90190010C01CA01A0011124F9
:1045F000FF27591B99F0593F50F4503E68F11A16A5
:10460000F040A22F232F342F4427585FF3CF469535
:1046100037952795A795F0405395C9F77EF41F1657
:10462000BA0B620B730B840BBAF09150A1F0FF0F21
:10463000BB1F661F771F881FC2F70EC0BA0F621F0D
:10464000731F841F48F4879577956795B795F795FD
:104650009E3F08F0B3CF9395880F08F09927EE0F8F
:10466000979587950895D9D008F481E008950CD0E6
:104670000FC107D140F0FED030F021F45F3F19F0B8
:10468000F0C0511139C1F3C014D198F39923C9F383
:104690005523B1F3951B550BBB27AA276217730748
:1046A000840738F09F5F5F4F220F331F441FAA1FFC
:1046B000A9F333D00E2E3AF0E0E830D091505040BC
:1046C000E695001CCAF729D0FE2F27D0660F771F6A
:1046D000881FBB1F261737074807AB07B0E809F04C
:1046E000BB0B802DBF01FF2793585F4F2AF09E3FE1
:1046F000510568F0B6C000C15F3FECF3983EDCF3B3
:10470000869577956795B795F7959F5FC9F7880F59
:10471000911D9695879597F90895E1E0660F771FAB
:10472000881FBB1F621773078407BA0720F0621B3C
:10473000730B840BBA0BEE1F88F7E095089504D035
:104740006894B111D9C00895BCD088F09F5790F0FB
:10475000B92F9927B751A0F0D1F0660F771F881FA6
:10476000991F1AF0BA95C9F712C0B13081F0C3D0C1
:10477000B1E00895C0C0672F782F8827B85F39F05F
:10478000B93FCCF3869577956795B395D9F73EF405
:1047900090958095709561957F4F8F4F9F4F0895AD
:1047A000E89409C097FB3EF49095809570956195CB
:1047B0007F4F8F4F9F4F9923A9F0F92F96E9BB2781
:1047C0009395F695879577956795B795F111F8CFFD
:1047D000FAF4BB0F11F460FF1BC06F5F7F4F8F4F68
:1047E0009F4F16C0882311F096E911C0772321F05E
:1047F0009EE8872F762F05C0662371F096E8862FF6
:1048000070E060E02AF09A95660F771F881FDAF74C
:10481000880F9695879597F90895990F0008550F79
:10482000AA0BE0E8FEEF16161706E807F907C0F036
:1048300012161306E407F50798F0621B730B840B3E
:10484000950B39F40A2661F0232B242B252B21F418
:1048500008950A2609F4A140A6958FEF811D811DB8
:10486000089597F99F6780E870E060E008959FEFF2
:1048700080EC089500240A941616170618060906F7
:10488000089500240A9412161306140605060895C6
:10489000092E0394000C11F4882352F0BB0F40F44E
:1048A000BF2B11F460FF04C06F5F7F4F8F4F9F4F8E
:1048B000089557FD9058440F551F59F05F3F71F010
:1048C0004795880F97FB991F61F09F3F79F0879577
:1048D0000895121613061406551FF2CF4695F1DF00
:1048E00008C0161617061806991FF1CF8695710590
:1048F000610508940895E894BB2766277727CB01C4
:1049000097F908958ADF08F48FEF08950BD0C0CF90
:10491000B1DF28F0B6DF18F0952309F0A2CFA7CFBA
:104920001124EACFC6DFA0F3959FD1F3950F50E095
:10493000551F629FF001729FBB27F00DB11D639F51
:10494000AA27F00DB11DAA1F649F6627B00DA11DF7
:10495000661F829F2227B00DA11D621F739FB00D9D
:10496000A11D621F839FA00D611D221F749F33270D
:10497000A00D611D231F849F600D211D822F762FA6
:104980006A2F11249F5750408AF0E1F088234AF0A3
:10499000EE0FFF1FBB1F661F771F881F91505040EF
:1049A000A9F79E3F510570F05CCFA6CF5F3FECF3B7
:1049B000983EDCF3869577956795B795F795E795DB
:1049C0009F5FC1F7FE2B880F911D9695879597F9EC
:1049D0000895FA01EE0FFF1F30962105310599F178
:1049E0006115710561F48038BFE39B0749F1689454
:1049F0009038810561F08038BFEF9B0741F0992323
:104A000042F5FF3FE1053105210511F1E8940894D5
:104A1000E795D901AA2329F4AB2FBE2FF85FD0F375
:104A200010C0FF5F70F4A695E0F7F73950F019F069
:104A3000FF3A38F49F779F930CD00F9007FC905863
:104A400008953EF014CF60E070E080E89FE30895A1
:104A50004FE79F775F934F933F932F939ED02F9174
:104A60003F914F915F9152DF05C019F40EF0F9CEDE
:104A700042CFFDCE26DFC8F39638C0F707F80F9275
:104A8000E8942BE33AEA48EB5FE74EDF0F920F9290
:104A90000F924DB75EB70F92C0D0ECE8F0E016D0A1
:104AA0004F915F91EF91FF91E595EE1FFF1F49F048
:104AB000FE57E0684427EE0F441FFA95E1F7419551
:104AC000550B32D00F9007FE26C00895DF93CF9389
:104AD0001F930F93FF92EF92DF927B018C016894FA
:104AE00005C0DA2EEF011EDFFE01E894A5912591A5
:104AF000359145915591AEF3EF0162DDFE019701CD
:104B0000A801DA9479F7DF90EF90FF900F911F9151
:104B1000CF91DF9108959B01AC0160E070E080E8E7
:104B20009FE3A5CD9ECEACC0CCDEE8F39923D9F3AC
:104B3000940F511DBBF39150504094F059F08823CD
:104B400032F0660F771F881F91505040C1F79E3F8B
:104B5000510544F7880F911D9695879597F908950B
:104B60005F3FACF0983E9CF0BB27869577956795A4
:104B7000B79508F4B1609395C1F7BB0F58F711F4DE
:104B800060FFE8CF6F5F7F4F8F4F9F4FE3CFB4CE73
:104B90000EF076C06CCE689464CE93DEC8F3992391
:104BA000D1F3C6F3DF93CF931F930F93FF92C92FD7
:104BB000DD2788232AF02197660F771F881FDAF7F1
:104BC00020E030E040E85FEB9FE3883920F0803E52
:104BD00030F021968F77E3DCE4EBF0E003C0DFDC1C
:104BE000E1EEF0E073DF8B01BE01EC01FB2E6F57AD
:104BF00071097595771F880B990BD4DD28E132E791
:104C000041E35FE38FDEAF2D9801AE01FF900F917E
:104C10001F91CF91DF91D4DC3BCEFA01DC01AA0FCA
:104C2000BB1F9B01AC01BF5728F422273327442721
:104C300050781FC0B75188F4AB2F002446953795A4
:104C40002795011CA395D2F3002069F0220F331F92
:104C5000441FB395DAF30DD0A1CC61307105A0E803
:104C60008A07B94630F49B01AC016627772788276D
:104C70009078309621F020833183428353830895C6
:104C80009F3F31F0915020F4879577956795B795C0
:104C9000880F911D9695879597F908958F929F9209
:104CA000AF92BF92CF92DF92EF92FF92CF93DF93BA
:104CB000EC01688179818A819B816115710581058B
:104CC000910521F464E279ED8BE597E02DE133EF76
:104CD00041E050E00E94802849015A019B01AC014B
:104CE000A7EAB1E40E946D286B017C01ACEEB4EF41
:104CF000A50194010E947B28C60ED71EE81EF91E4E
:104D0000F7FE06C081E0C81AD108E10880E8F80A79
:104D1000C882D982EA82FB82C6019F77DF91CF9158
:104D2000FF90EF90DF90CF90BF90AF909F908F90CB
:104D300008950E944E26089589E091E00E944E2633
:104D40000895A0E0B0E08093090190930A01A09338
:104D50000B01B0930C010895283008F027E03327A9
:104D6000DA01990F311D87FD91600096610571058B
:104D700039F432602E5F3D9330E32A95E1F70895D0
:104D80009F3F30F080387105610509F03C5F3C5F62
:104D90003D93913008F08068911DDF93CF931F936E
:104DA0000F93FF92EF92192F987F9695E92F969582
:104DB0009695E90FFF27E059FE4F99273327EE24F8
:104DC000FF24A701E70105900894079428F4360F03
:104DD000E71EF81E491F511D660F771F881F991F78
:104DE0000694A1F70590079428F4E70EF81E491FD2
:104DF000561FC11D770F881F991F661F0694A1F7C4
:104E00000590079428F4F80E491F561FC71FD11D9F
:104E1000880F991F661F771F0694A1F705900794C6
:104E200020F4490F561FC71FD81F990F661F771F01
:104E3000881F0694A9F784911095177041F0D695B4
:104E4000C79557954795F794E7941A95C1F7E6E10A
:104E5000F1E06894159015913591659195910590C3
:104E60007FE27395E118F10A430B560BC90BD00989
:104E7000C0F7E10CF11E431F561FC91FD01D7EF461
:104E8000703311F48A95E6CFE894015030F0080FA2
:104E90000AF40027021708F4202F2395022F7A33F3
:104EA00028F079E37D932A95E9F710C07D932A9540
:104EB00089F6069497956795379517951794E11895
:104EC000F10A430B560BC90BD00998F023957E913C
:104ED00073957A3308F070E37C932013B8F77E91D2
:104EE00070617D9330F0839571E37D9370E32A9533
:104EF000E1F71124EF90FF900F911F91CF91DF9177
:104F0000992787FD90950895FC01059061507040A8
:104F10000110D8F7809590958E0F9F1F0895FC0182
:104F20006150704001900110D8F7809590958E0FD8
:104F30009F1F08950F931F93CF93DF93182F092F6F
:104F4000EB018B8181FD03C08FEF9FEF20C082FFBB
:104F500010C04E815F812C813D81421753077CF444
:104F6000E881F9819F012F5F3F4F398328831083A8
:104F700006C0E885F985812F0995892B29F72E81AF
:104F80003F812F5F3F4F3F832E83812F902FDF91F3
:104F9000CF911F910F9108950F931F93CF93DF939C
:104FA000E0911D04F0911E04238121FF1BC0EC0140
:104FB00000E010E0899160911D0470911E04DB01F6
:104FC0001896ED91FC911997882331F00995892B5A
:104FD00089F30FEF1FEFEECF8AE00995892B11F4CB
:104FE000C80102C08FEF9FEFDF91CF911F910F910A
:104FF0000895FA01AA27283051F1203181F1E8946F
:105000006F936E7F6E5F7F4F8F4F9F4FAF4FB1E0BB
:105010003ED0B4E03CD0670F781F891F9A1FA11DB6
:10502000680F791F8A1F911DA11D6A0F711D811DB7
:10503000911DA11D20D009F468943F912AE0269F7C
:1050400011243019305D3193DEF6CF010895462FDB
:105050004770405D4193B3E00FD0C9F7F6CF462FBC
:105060004F70405D4A3318F0495D31FD4052419325
:1050700002D0A9F7EACFB4E0A695979587957795E2
:105080006795BA95C9F700976105710508959B0169
:10509000AC010A2E06945795479537952795BA95F2
:1050A000C9F7620F731F841F951FA01D0895F999FA
:1050B000FECF92BD81BDF89A992780B50895262F1D
:1050C000F999FECF1FBA92BD81BD20BD0FB6F894ED
:1050D000FA9AF99A0FBE019608950E945A22A59F46
:1050E000900DB49F900DA49F800D911D11240895E3
:1050F000B7FF0C946D280E946D28821B930B0895B6
:10510000052E97FB1EF400940E94972857FD07D0A8
:105110000E949F2807FC03D04EF40C9497285095CA
:105120004095309521953F4F4F4F5F4F0895909593
:105130008095709561957F4F8F4F9F4F0895A1E2A5
:105140001A2EAA1BBB1BFD010DC0AA1FBB1FEE1F01
:10515000FF1FA217B307E407F50720F0A21BB30B4C
:10516000E40BF50B661F771F881F991F1A9469F7C8
:1051700060957095809590959B01AC01BD01CF0124
:065180000895F894FFCF32
:105186001801AAEF16EC16EB160100000046756C26
:045196006C2E00007B
:00000001FF
