:100000000C9408010C942E010C942E010C942E01DA
:100010000C942E010C942E010C942A180C942E0191
:100020000C942E010C942E010C942E010C94F01DB6
:100030000C942E010C942E010C94501D0C942E0146
:100040000C942E010C942E010C942E010C942E0174
:100050000C942E010C942E010C942E010C94121E63
:100060000C942E010C942E018D1809196118571843
:100070005E18EB18E0186E1F521E521E6B1F771F82
:10008000671F7E1F7A1F821F3B1F0D1F07634236AB
:10009000B79BD8A71A39685618AEBAAB558C1D3C19
:1000A000B7CC5763BD6DEDFD753EF6177231BF00DD
:1000B0000000803F08000000BE922449123EABAA17
:1000C000AA2ABECDCCCC4C3E00000080BEABAAAA72
:1000D000AA3E00000000BF000000803F00000000BA
:1000E00000084178D3BB4387D1133D190E3CC3BDF3
:1000F0004282AD2B3E68EC8276BED98FE1A93E4CA0
:1001000080EFFFBE01C4FF7F3F00000000006E6172
:100110006E00696E660000407A10F35A00A0724EBD
:1001200018090010A5D4E80000E87648170000E49C
:100130000B54020000CA9A3B000000E1F5050000E4
:1001400080969800000040420F000000A086010049
:100150000000102700000000E80300000000640019
:10016000000000000A000000000001000000000084
:100170002C76D888DC674F0823DFC1DFAE59E1B1A8
:10018000B796E5E3E453C63AE651997696E8E6C2B7
:100190008426EB898C9B62ED407C6FFCEFBC9C9FBE
:1001A00040F2BAA56FA5F490055A2AF75C936B6CE0
:1001B000F9676DC11BFCE0E40D47FEF520E6B500D4
:1001C000D0ED902E0300943577050080841E080042
:1001D00000204E0A000000C80C333333330F986EF2
:1001E00012831141EF8D2114893BE65516CFFEE6AF
:1001F000DB18D1844B381BF77C1D901DA4BBE42475
:10020000203284725E228100C9F124ECA1E53D27F1
:1002100011241FBECFEFD8E0DEBFCDBF14BE88E1F2
:100220000FB6F89480936000109260000FBE11E04A
:10023000A0E0B1E0E4E7F5E502C005900D92A2323E
:10024000B107D9F714E0A2E2B1E001C01D92AF32CC
:10025000B107E1F70E942C240C94B82A0C940000FA
:100260008093C6008091C00085FFFCCF80E090E0C5
:10027000089580910E0190910F01FC01EE55FE4F03
:100280002081211103C08A569E4F089580E090E09E
:1002900008951F93CF93DF9320910E0130910F01AA
:1002A000A9014C555D4FDA01EC91E901B0E1EB9FFA
:1002B000C00DD11D1124CD55DE4F1CE0FC01DE0127
:1002C00001900D921A95E1F7FB0180819181A28145
:1002D000B3818C879D87AE87BF87DA018C9190E0D0
:1002E00001968F7099278C93F901ED55FD4F208170
:1002F000281721F0DF91CF911F91089501968F70FB
:10030000992780838BE191E0DF91CF911F910C942D
:10031000C329DF92EF92FF920F931F93CF93DF9346
:100320000E946C1A0196E1F30E94011A0E94691A58
:100330000E94521A182F0E94521AD82EC0910E01F4
:10034000D0910F017E018FE7E81A8EEFF80AA4E63C
:100350001A9FC00111240FEF10E0B8010E94602421
:10036000882777FD8095982F0E94C9252AE037EDD0
:1003700043E25CE30E947D2620E030E040EC50E464
:100380000E947D26F7016083718382839383CB571C
:10039000DE4FF4E6DF9EC0011124B8010E94602404
:1003A000882777FD8095982F0E94C9252AE037ED90
:1003B00043E25CE30E947D2620E030E040EC50E424
:1003C0000E947D26688379838A839B830E94521AC8
:1003D000282F30E03093250420932404C0910E018F
:1003E000D0910F01FE01E058FE4F91E09083FE0195
:1003F000E357FE4F1082FE01E458FE4F1182108237
:10040000FE01E158FE4F1082FE01E258FE4F1082BD
:10041000FE01E757FE4F1082118212821382FE0105
:10042000E257FE4F1082118212821382FE01EE56B5
:10043000FE4F1082118212821382FE01EE55FE4F92
:100440009083FE01E156FE4F1082FE01EA56FE4FF8
:100450008083DE01A956BE4F1C92DE01A856BE4F16
:100460001C92DE01A356BE4F1C92DE01AF57BE4F59
:100470008D919D910D90BC91A02DAC01BD0137E1F6
:1004800075956795579547953A95D1F750E08A014C
:100490000F5711090131110514F000E110E0AC0112
:1004A000BD016F7777272DE076956795579547952E
:1004B0002A95D1F77E0127E6E21A2EEFF20A013FD4
:1004C0002FEF120714F401EF1FEF015F000F000F71
:1004D000BB0F880B982FDC01879588278795802B89
:1004E000852BD7018C93DE01A556BE4F4C93DE01C0
:1004F000AB57BE4F0D911D912D913C91D901C80173
:1005000047E1B595A795979587954A95D1F790E0DE
:100510008F5791098131910514F080E190E0B90184
:10052000A8016F777727ADE0769567955795479542
:10053000AA95D1F77E01B6E6EB1ABEEFFB0A813F22
:10054000AFEF9A0714F481EF9FEF815F880F880F58
:10055000330F000B102F9801079500270795082BE4
:10056000052BD7010C93DE01A456BE4F4C93CF014F
:100570000E941520C056DE4F99838883E0910E01BA
:10058000F0910F01EE55FE4F1082DF91CF911F9138
:100590000F91FF90EF90DF900895F894519A8CE0BE
:1005A00090E09093C5008093C400E0ECF0E080817F
:1005B0008D7F8083E2ECF0E0808186608083E1ECD7
:1005C000F0E080818860808380E091E090932C044B
:1005D00080932B0478940895E0910E01F0910F011F
:1005E000E258FE4F80830895E0910E01F0910F01D3
:1005F000E258FE4F808190E00895E0910E01F09165
:100600000F01E158FE4F80830895E0910E01F091B3
:100610000F01E158FE4F808190E00895A0910E01F6
:10062000B0910F01FD01E458FE4F40815181141635
:100630001506E4F490E02D913C91119728173907A5
:10064000B9F060E073E10CC0729FF001739FF00D90
:100650001124EA0FFB1F208131812817390741F04F
:100660006F5F262F30E02417350774F380E008957C
:1006700081E00895CF93E0910E01F0910F01EF57C3
:10068000FE4FC1E020E030E040E850E4608171813D
:10069000828193810E94792618161CF48C2FCF91A9
:1006A0000895C0E08C2FCF910895BF92CF92DF9232
:1006B000EF92FF920F931F93CF93DF9300910E0160
:1006C00010910F01F801E458FE4FE080F1801E14F4
:1006D0001F047CF520E030E0BB24BA94D12C43E128
:1006E000C42EC29EE001C39ED00D1124C00FD11FA5
:1006F00020E030E040E850E46F81788589859A8574
:100700000E947926181624F49A819B1508F4B92EB4
:10071000D3942D2D30E02E153F051CF38B2DDF914A
:10072000CF911F910F91FF90EF90DF90CF90BF90EE
:100730000895BB24BA94F2CF40910E0150910F015D
:10074000FA01E458FE4F6081718116161706E4F431
:1007500020E030E0AFEF8FEF90E0B3E1B29FF00127
:10076000B39FF00D1124E40FF51F22812A1728F4FE
:100770003481323010F08081A22F9F5F292F30E02A
:10078000261737075CF308958FEF089540910E0107
:1007900050910F01FA01E458FE4F608171811616E5
:1007A0001706DCF420E030E0A0E08FEF90E0B3E14A
:1007B000B29FF001B39FF00D1124E40FF51F2281C9
:1007C000A21708F4892FA21708F4A22F9F5F292FE0
:1007D00030E02617370764F308958FEF0895CF931D
:1007E000DF93A0910E01B0910F01FD01E458FE4F7F
:1007F0006081718116161706DCF42D913C911197DA
:1008000028173907C9F0C0E0D3E10CC0D29FF0012E
:10081000D39FF00D1124EA0FFB1F4081518148172F
:10082000590761F0CF5F2C2F30E02617370774F39C
:100830008FEFDF91CF91089520E030E083E1829F38
:10084000F001839FF00D1124EA0FFB1F8281DF91DD
:10085000CF910895CF93DF93A0910E01B0910F0136
:10086000FD01E458FE4F6081718116161706DCF415
:100870002D913C91119728173907C9F0C0E0D3E1B9
:100880000CC0D29FF001D39FF00D1124EA0FFB1F83
:10089000408151814817590761F0CF5F2C2F30E01C
:1008A0002617370774F380E0DF91CF91089520E099
:1008B00030E083E1829FF001839FF00D1124EA0F65
:1008C000FB1F8381DF91CF910895CF93DF93A09198
:1008D0000E01B0910F01FD01E458FE4F608171815E
:1008E00016161706DCF42D913C911197281739073D
:1008F000D1F0C0E0D3E10CC0D29FF001D39FF00D46
:100900001124EA0FFB1F408151814817590769F0F4
:10091000CF5F2C2F30E02617370774F38FEF90E06E
:10092000DF91CF91089520E030E083E1829FF001D4
:10093000839FF00D1124EA0FFB1F85819681DF91C3
:10094000CF910895A0910E01B0910F01FD01E458DF
:10095000FE4F2081318112161306C4F413968C9138
:100960001397811115C040E053E10AC0589FF00170
:10097000599FF00D1124EA0FFB1F8381811108C0DC
:100980004F5F842F90E08217930784F381E00895EE
:1009900080E008952F923F924F925F926F927F92E4
:1009A0008F929F92AF92BF92CF92DF92EF92FF927F
:1009B0000F931F93CF93DF9300D000D0CDB7DEB756
:1009C00020910E0130910F013A832983F901E458F7
:1009D000FE4F00811181101611060CF066C080E0F8
:1009E00090E0312C412C512C32015301420153E152
:1009F000252E289ED001299EB00D1124E981FA816F
:100A0000AE0FBF1FBC83AB8312966C9170E080E089
:100A100090E00E94C7259B01AC0160E070E080E897
:100A20009FE30E942E256B017C01AB81BC81149653
:100A30006C9170E080E090E00E94C725A7019601CC
:100A40000E947D269B01AC01C501B4010E94C62411
:100A50004B015C01A7019601C301B2010E94C624AB
:100A60002B013C013394832D90E0801791070CF209
:100A7000A3019201C501B4010E942E250F900F9091
:100A80000F900F90DF91CF911F910F91FF90EF90FA
:100A9000DF90CF90BF90AF909F908F907F906F909E
:100AA0005F904F903F902F900895412C512C320130
:100AB00053014201DDCF4F925F926F927F928F92EE
:100AC0009F92AF92BF92CF92DF92EF92FF920F93DD
:100AD0001F934B015C0167017801C701B6010E94B9
:100AE0007D262B013C01A701960160E070E080E8C3
:100AF0009FE30E94C524A50194010E947D269B01CD
:100B0000AC01C301B2010E94C6241F910F91FF9056
:100B1000EF90DF90CF90BF90AF909F908F907F909D
:100B20006F905F904F9008952F923F924F925F92F7
:100B30006F927F928F929F92AF92BF92CF92DF92ED
:100B4000EF92FF920F931F93CF93DF93CDB7DEB752
:100B50002E970FB6F894DEBF0FBECDBF60910E0189
:100B600070910F01FB01E458FE4F808191811B01C0
:100B7000181619060CF05CC1BFE72B1ABEEF3B0A32
:100B8000F10140805180628073809B012B573E4F62
:100B90003E832D83D9012D913D914D915C91298307
:100BA0003A834B835C839B012D5F3F4F38872F83B4
:100BB00023E1289F8001299F100D11244F81588522
:100BC000040F151F812C912C540175016401EF81D4
:100BD000F88531978081863560F5AF81B8858C9135
:100BE0008150823030F1A301920114966D917D9174
:100BF0008D919C9117970E94C5249B01AC01C50162
:100C0000B4010E94C6244B015C0129813A814B81C9
:100C10005C81EF81F88560857185828593850E946E
:100C2000C5249B01AC01C701B6010E94C6246B011B
:100C30007C012F8138852D5E3F4F38872F83201709
:100C4000310729F620E030E040E05FE3C501B40160
:100C50000E947D266F83788789879A8720E030E01D
:100C600040E251E4C701B6010E947D266B877C8774
:100C70008D879E872AE037ED43EA5DE3C301B20129
:100C80000E947D266B017C012AE037ED43EA5DEB93
:100C900069817A818B819C810E947D269B01AC01B8
:100CA000C701B6010E94C6242FE832EC45EF5CE391
:100CB0000E94C6244B015C012DEC3CEC4CEC5DE346
:100CC000C301B2010E947D262FE832EC45EF5DE3BF
:100CD0000E94C5246B017C0120E030E0A901C50120
:100CE000B4010E942A2587FD9BC02FE135E84BE621
:100CF0005EE3C501B4010E94792687FD08C07FE14B
:100D0000872E75E8972E7BE6A72E7EE3B72E20E090
:100D100030E0A901C701B6010E942A2587FD84C0E1
:100D200020E030E040E05FE3C701B6010E94792691
:100D300087FD05C0C12CD12CE12C6FE3F62E2FE8E6
:100D400032EC45EF5CE3C301B2010E947D269B01BA
:100D5000AC01C501B4010E94C52420E030E040E2AE
:100D600053E40E947D262F81388549855A850E944B
:100D7000C62427E137EB41E558E30E947D26A30115
:100D800092010E94C624D1016D937D938D939C9313
:100D900013972FE832EC45E75DE369817A818B8117
:100DA0009C810E947D269B01AC01C701B6010E9477
:100DB000C52420E030E040E253E40E947D262B85EC
:100DC0003C854D855E850E94C62427E137EB41E5D1
:100DD00058E30E947D2629813A814B815C810E94E3
:100DE000C624ED81FE8160837183828393832E9676
:100DF0000FB6F894DEBF0FBECDBFDF91CF911F912C
:100E00000F91FF90EF90DF90CF90BF90AF909F90A9
:100E10008F907F906F905F904F903F902F900895AC
:100E2000812C912C540173CFC12CD12C760187CF0A
:100E30002FE7221A2EEF320AD1014D905D906D906E
:100E40007C90FB01EB57FE4FFE83ED8320813181C7
:100E50004281538129833A834B835C831B861C86A2
:100E60001D861E861F82188619861A8603CF8091DA
:100E70000E0190910F01FC01EE56FE4FDC01A257CE
:100E8000BE4F2D913D914D915C9160817181828128
:100E900093810E942E252DEC3CEC4CE45FE30E94F4
:100EA0002A25881F8827881F089580910E01909118
:100EB0000F01FC01EE56FE4FDC01A257BE4F2D91F3
:100EC0003D914D915C9160817181828193810E94FD
:100ED0002E252DEC3CEC4CE45FE30E942A25881F74
:100EE0008827881F0895089520910E0130910F01E1
:100EF000F901E357FE4F4081411103C097FD16C031
:100F0000089518161906E4F71082F901E158FE4F0A
:100F10008081813071F0823099F781E00E94CF1694
:100F2000E0910E01F0910F01E158FE4F81E08083C6
:100F3000089582E00E94CF16E0910E01F0910F011A
:100F4000E158FE4F82E0808308951F93CF93DF9393
:100F50001F92CDB7DEB7182F462F50E0282F30E074
:100F600024173507B4F4E0910E01F0910F01E05819
:100F7000FE4F8081823041F182E069830E94CF166A
:100F8000E0910E01F0910F01E158FE4F82E0808365
:100F900069811617A0F0E0910E01F0910F01E05861
:100FA000FE4F10811230F1F081E00E94CF16E091E7
:100FB0000E01F0910F01E158FE4F81E080830F9008
:100FC000DF91CF911F91089581E069830E94CF1630
:100FD000E0910E01F0910F01E158FE4F81E0808316
:100FE0006981D7CF82E00E94CF16E0910E01F09187
:100FF0000F01E158FE4F10830F90DF91CF911F91A9
:1010000008950C94521ACF930E94521AC3E1A091F2
:101010000E01B0910F01FD01E458FE4F4081518156
:1010200014161506E4F4682F70E02D913C91119789
:1010300026173707B1F090E00CC0C29FF001C39FA4
:10104000F00D1124EA0FFB1F20813181261737078D
:1010500041F09F5F292F30E02417350774F3CF91BB
:1010600008950E94521AD3CFCF92DF92EF92FF924F
:101070000F931F93CF93DF93D82EC0910E01D09181
:101080000F01FE01E458FE4F008111811016110678
:101090002CF520E030E0E12CF12CE3E1CE2E06C06F
:1010A000F3942F2D30E020173107C4F4C29EF001D5
:1010B000C39EF00D1124EC0FFD1F20E030E040E84E
:1010C00050E467817085818592850E947926181683
:1010D0000CF4E394ED10E4CF81E001C080E0DF91F7
:1010E000CF911F910F91FF90EF90DF90CF900895D7
:1010F0002F923F924F925F926F927F928F929F9228
:10110000AF92BF92CF92DF92EF92FF920F931F9315
:10111000CF93DF93CDB7DEB72E970FB6F894DEBF2F
:101120000FBECDBF20910E0130910F01F901ED5599
:10113000FD4F808140E1849FC00111245C01ADE539
:10114000AA1AAEEFBA0AA20EB31EF501018110E091
:10115000102F00274081042B81559E4F820F931F33
:101160000E94891AA0910E01B0910F017D01F4E84F
:10117000EF1AFEEFFF0AF70160817181863508F0F2
:101180004BC0161617060CF0B9C12D913C91119762
:101190002017310709F493C190E0E3E1DE2E0DC082
:1011A000D29EF001D39EF00D1124EA0FFB1F408167
:1011B00051814017510709F484C19F5F292F30E006
:1011C000261737076CF32617370709F059C0233164
:1011D00031050CF445C0FF24FA9490E060E040E053
:1011E00050E073E1E72E0CC0792FF72E641708F456
:1011F000642F9F5F492F50E0421753070CF081C1C5
:10120000E49EF001E59EF00D1124EA0FFB1F4281E0
:10121000641750F37F2DE9CF161617060CF06EC138
:10122000FD01E258FE4F9081923009F4AECF2E9628
:101230000FB6F894DEBF0FBECDBFDF91CF911F91E7
:101240000F91FF90EF90DF90CF90BF90AF909F9065
:101250008F907F906F905F904F903F902F90089568
:10126000A9014F5F5F4FF7015183408393E1929F44
:10127000F001939FF00D1124EA0FFB1F16821582D7
:1012800093E1929F1001939F300C11249D01220D38
:10129000331DF901118300834091EE035091EF0358
:1012A0006091F0037091F1034787508B618B728BD3
:1012B0008283F5018281F9018483F5018781F90137
:1012C000838395012D5F3F4F3F832E83C501059694
:1012D0009987888797E0290E311C2A0E3B1EA88526
:1012E000B985BC87AB87F9018191FF83EE83F82F25
:1012F000FF1FFF27FF1FFA87282F269526952F719E
:101300002D83A885B9850D91B987A887837010E0D2
:10131000182B80E090E0A0E0B4E489839A83AB834B
:10132000BC83412C512C612CFFE37F2EA9E0EA2ED7
:10133000F12C812C912C5401FE86ED8628C0BD0134
:101340006A507109882777FD8095982F0E94C925DA
:101350009B01AC0160E070E080E090E40E94E02638
:101360002B013C012D853E85B901882777FD8095AD
:10137000982F0E94C9259B01AC0160E070E080E0DD
:1013800090E40E94E02669837A838B839C83B80172
:101390000D8402C0769567950A94E2F780E090E0AC
:1013A0000E94C7256B017C01A30192010E947D264A
:1013B0009B01AC01C501B4010E94C6244B015C0134
:1013C000B80180E090E00E94C7252B013C012981F3
:1013D0003A814B815C81C701B6010E947D269B0149
:1013E000AC01C301B2010E94C5240E949B258B0160
:1013F000AD85BE851197BE87AD87AF3FEFEFBE07C6
:1014000009F09DCF3D813F3109F44CC0FA856F2F23
:1014100070E080E090E00E94C7259B01AC0160E095
:1014200070E080E89FEB0E94E0266B017C012D813B
:10143000622F70E06F507109882777FD8095982F93
:101440000E94C9259B01AC0160E070E080E090E45F
:101450000E94E0269B01AC01C701B6010E947D26D7
:101460006B017C0120E030E040E85FE3C501B4019E
:101470000E94C6249B01AC01C701B6010E947D26D3
:10148000D1016D937D938D939C931397B4E02B0EB4
:10149000311CEE81FF812B853C85E217F30709F0B3
:1014A00023CFC5CE4A8541111CC080E090EEAFE746
:1014B000B7E4F10180839183A283B383E7CF20E077
:1014C00030E093E1929FF001939FF00D1124EA0F19
:1014D000FB1F482F50E09281491B510956834583D9
:1014E000CFCE413009F092CF80E090EEAFE7B7EC7D
:1014F000F10180839183A283B383C8CF20E030E0E1
:1015000062CE272F30E0B2CE2F923F924F925F9261
:101510006F927F928F929F92AF92BF92CF92DF9203
:10152000EF92FF920F931F93CF93DF9300D01F9200
:10153000CDB7DEB780910E0190910F019B838A8316
:10154000DC01AD55BD4FFC01EC55FD4F9C918081F8
:101550009817B9F00E947808E0910E01F0910F0100
:10156000FB83EA83ED55FD4F808190E001968F70FB
:1015700099278083EA81FB81EC55FD4F9081981378
:10158000E9CFEA81FB81E458FE4F208031800A8157
:101590001B810E561E4FB101882777FD8095982F2D
:1015A0000E94C92527E137EB41ED58E30E947D26D3
:1015B0006B017C0122E739EF4FE75FE3F8016081BF
:1015C0007181828193810E947D269B01AC01C701BC
:1015D000B6010E94C624F8016083718382839383DD
:1015E000121413047CF10A811B8102571E4F22E75B
:1015F00039EF4FE75FE3F801608171818281938168
:101600000E947D2620E030E0A9010E94C624F80156
:1016100060837183828393830F900F900F90DF918B
:10162000CF911F910F91FF90EF90DF90CF90BF90DF
:10163000AF909F908F907F906F905F904F903F9072
:101640002F9008951982412C512C320153014201EF
:1016500080E090E0F3E1F89F8001F99F100D1124E4
:101660008A819B81080F191FF801628170E080E078
:1016700090E00E94C7259B01AC0160E070E080E82B
:101680009FE30E942E256B017C01F801648170E0CC
:1016900080E090E00E94C7259B01AC01C701B60124
:1016A0000E947D269B01AC01C501B4010E94C624A5
:1016B0004B015C01A7019601C301B2010E94C6243F
:1016C0002B013C01F981FF5FF9838F2F90E0821598
:1016D00093050CF4BFCF0A811B8102571E4FA30153
:1016E0009201C501B4010E942E2527E137EB41ED9F
:1016F00058E30E947D266B017C0122E739EF4FE71A
:101700005FE3F80160817181828193810E947D266F
:101710009B01AC01C701B6010E94C624F801608399
:1017200071838283938378CFEF92FF920F931F93FD
:10173000CF93DF9320910E0130910F01890104585E
:101740001E4FF801F080FA94F7FC34C0B3E1EB2EA1
:101750008091EE039091EF03A091F003B091F1031B
:10176000A7015403E0011124C20FD31F4F855889EC
:1017700069897A89841B950BA60BB70B8134910577
:10178000A105B105A0F0F801808191810197E89E43
:10179000F001E99EF00D1124E20FF31FDE014E2D42
:1017A00001900D924A95E1F7F80191838083FA94B4
:1017B000F7FECECFDF91CF911F910F91FF90EF9069
:1017C0000895EF92FF920F931F93CF93DF93C091F1
:1017D0000E01D0910F01FE01EE55FE4F81E0808396
:1017E000FE01E156FE4F1082309124042091250421
:1017F000CE018A569E4FFC013083FE01E956FE4F12
:101800002083FE01E856FE4FDE01A458BE4F2C9106
:101810002083FE01E356FE4FDE01A258BE4F2C91FD
:101820002083FE01EF57FE4F008111812281338119
:10183000B901A801F7E17595679557954795FA9510
:10184000D1F750E0DA01AF57B109A131B10514F079
:10185000A0E1B0E0B901A8016F777727EDE07695B8
:10186000679557954795EA95D1F77E01F7E6EF1A08
:10187000FEEFFF0AA13FEFEFBE0714F4A1EFBFEFA9
:10188000A15FAA0FAA0F330F000B102F9801079525
:10189000002707950A2B052BF7010083FE01E5566B
:1018A000FE4F4083FE01EB57FE4F008111812281E4
:1018B0003381B901A801A7E17595679557954795BB
:1018C000AA95D1F750E0DA01AF57B109A131B105BE
:1018D00014F0A0E1B0E0B901A8016F777727EDE03F
:1018E0007695679557954795EA95D1F77E01F6E687
:1018F000EF1AFEEFFF0AA13FEFEFBE0714F4A1EFCE
:10190000BFEFA15FAA0FAA0F330F000B102F980192
:101910000795002707950A2B052BF7010083FE0189
:10192000E456FE4F40830E941520C056DE4F998337
:101930008883E0910E01F0910F01EE55FE4F108269
:10194000DF91CF911F910F91FF90EF900895BF927B
:10195000CF92DF92EF92FF920F931F93CF93DF937B
:10196000C0910E01D0910F01FE01EE56FE4FDE0137
:10197000A257BE4F2D913D914D915C916081718137
:10198000828193810E942E252DEC3CEC4CE45FE398
:101990000E942A2587FFFEC0FE01E458FE4F008109
:1019A0001181101611060CF000C18B818111F2C05B
:1019B00020E033E10AC0389FF001399FF00D112477
:1019C000EC0FFD1F83818111E5C02F5F822F90E016
:1019D0008017910784F320E030E040E850E4FE01F6
:1019E000EF57FE4F60817181828193810E94792639
:1019F00018160CF0F7C0F12CE12C80E090E0A3E188
:101A0000DA2E07C0F3948F2D90E0801791070CF029
:101A100066C0D89EF001D99EF00D1124EC0FFD1F79
:101A200020E030E040E850E4678170858185928550
:101A30000E94792618160CF4E39481E0E812E2CFB4
:101A4000F12CE12C80E090E043E1D42E07C0F39428
:101A50008F2D90E0801791070CF09CC0D89EF0016C
:101A6000D99EF00D1124EC0FFD1F20E030E040E87E
:101A700050E467817085818592850E9479261816C9
:101A80000CF4E394E1E0EE12E2CFD12CBB24BA9443
:101A900080E090E033E1C32EC89E7001C99EF00C37
:101AA0001124EC0EFD1E20E030E040E850E4F70188
:101AB00067817085818592850E94792618162CF49D
:101AC000F70182818B1508F4B82ED3948D2D90E008
:101AD000801791070CF3FDE2FB1508F05BC0FE01D7
:101AE000E757FE4F80819181A281B381892B8A2B98
:101AF0008B2B09F04FC0D12CBB24BA9480E090E02E
:101B000023E1C22EC89E7001C99EF00C1124EC0E78
:101B1000FD1E20E030E040E850E4F7016781708569
:101B2000818592850E94792618162CF4F70182810E
:101B30008B1508F4B82ED3948D2D90E08017910763
:101B40000CF3FDE2FB1508F44BC0F12CE12C80E016
:101B500090E0B3E1DB2E07C0F3948F2D90E0801767
:101B600091070CF03DC0D89EF001D99EF00D1124D4
:101B7000EC0FFD1F20E030E040E850E46781708505
:101B8000818592850E94792618160CF4E39482E0F0
:101B9000E812E2CF80E0DF91CF911F910F91FF908B
:101BA000EF90DF90CF90BF90089520E030E040E8C4
:101BB00050E4FE01EF57FE4F608171818281938175
:101BC0000E947926181674F4C757DE4F88819981D0
:101BD000AA81BB81892B8A2B8B2BE1F6012BD1F2B9
:101BE00081E0D9CFFE01E757FE4F80819181A2812C
:101BF000B381892B8A2B8B2B69F6101611060CF4F6
:101C00007ACFECCFBF92CF92DF92EF92FF920F93F9
:101C10001F93CF93DF93C0910E01D0910F01FE016E
:101C2000E458FE4F00811181101611060CF0B9C066
:101C30002FEF30E04FEF80E090E053E1589FF0014C
:101C4000599FF00D1124EC0FFD1F8281841728F499
:101C50009481923010F02081482F3F5F832F90E0D5
:101C6000801791075CF330E0688179812617370788
:101C700009F4A2C0A0E0B3E10DC0B89FF001B99F84
:101C8000F00D1124EC0FFD1F408151812417350701
:101C900009F494C0AF5F8A2F90E0801791076CF32E
:101CA000AFEF60E073E10DC0789FF001799FF00D18
:101CB0001124EC0FFD1F408151812417350709F4D1
:101CC0008CC06F5F862F90E0801791076CF3AD3367
:101CD00008F067C0FE01E257FE4F2081318142814A
:101CE0005381FE01EE56FE4F6081718182819381A6
:101CF0000E942E252DEC3CEC4CE45FE30E942A254B
:101D000087FF4FC0D12CBB24BA9480E090E063E100
:101D1000C62EC89E7001C99EF00C1124EC0EFD1E4B
:101D200020E030E040E850E4F7016781708581856C
:101D300092850E94792618162CF4F70182818B1562
:101D400008F4B82ED3948D2D90E0801791070CF3F2
:101D5000FBE2FB1508F44DC0F12CE12C80E090E093
:101D600053E1D52E07C0F3948F2D90E08017910793
:101D70000CF03FC0D89EF001D99EF00D1124EC0F5D
:101D8000FD1F20E030E040E850E4678170858185E8
:101D900092850E94792618160CF4E39482E0E812EA
:101DA000E2CF81E0DF91CF911F910F91FF90EF90F3
:101DB000DF90CF90BF90089580E090E043E1489F8E
:101DC000F001499FF00D1124EC0FFD1FA281261791
:101DD000370709F066CF80E090E023E1289FF0010B
:101DE000299FF00D1124EC0FFD1F83818111D9CFA4
:101DF0006ECF81E0012BB1F280E0D4CFBF92CF92C1
:101E0000DF92EF92FF920F931F93CF93DF93C091D6
:101E10000E01D0910F01FE01E458FE4F00811181A7
:101E2000101611060CF06FC05FEF20E03FEF80E06E
:101E300090E043E1489FF001499FF00D1124EC0F21
:101E4000FD1F8281831728F49481923010F0508115
:101E5000382F2F5F822F90E0801791075CF3E52EDB
:101E6000F12CC880D980EC14FD0409F457C040E07F
:101E700053E10DC0589FF001599FF00D1124EC0F54
:101E8000FD1F20813181E216F30609F449C04F5F3E
:101E9000842F90E0801791076CF3BB24BA94FE0165
:101EA000E257FE4F2081318142815381FE01EE567F
:101EB000FE4F60817181828193810E942E252DECDD
:101EC0003CEC4CE45FE30E942A2587FF1CC0EC1425
:101ED000FD0481F140E053E10CC0589FF001599F8F
:101EE000F00D1124EC0FFD1F20813181E216F30665
:101EF00019F14F5F842F90E08017910774F381E010
:101F00009CE39B1508F080E0DF91CF911F910F912A
:101F1000FF90EF90DF90CF90BF90089580E090E029
:101F200023E1289FF001299FF00D1124EC0FFD1FE4
:101F3000B280B5CF80E090E023E1289FF001299F97
:101F4000F00D1124EC0FFD1F83818111DCCFD7CF61
:101F50000F931F93CF93DF93A0910E01B0910F01C8
:101F6000FD01E458FE4F80819181181619060CF08E
:101F70007CC04FEF50E06FEF20E030E073E1729FE4
:101F8000F001739FF00D1124EA0FFB1F2281261729
:101F900028F43481323010F04081622F5F5F252FAA
:101FA00030E0281739075CF350E0CD91DC911197B0
:101FB0004C175D0799F110E003E10CC0029FF0019E
:101FC000039FF00D1124EA0FFB1F608171814617FA
:101FD000570731F11F5F212F30E02817390774F3BD
:101FE0001FEFC0E0D3E10CC0D29FF001D39FF00DF2
:101FF0001124EA0FFB1F6081718146175707F1F02A
:10200000CF5F2C2F30E02817390774F381E01E32A0
:1020100030F5DF91CF911F910F91089520E030E0CE
:1020200063E1629FF001639FF00D1124EA0FFB1F33
:1020300012814C175D07A9F620E030E083E1829F12
:10204000F001839FF00D1124EA0FFB1F8381882389
:10205000E9F281E0DF91CF911F910F91089580E027
:10206000DF91CF911F910F910895892B91F31FEF6D
:10207000CDCFBF92CF92DF92EF92FF920F931F933B
:10208000CF93DF93C0910E01D0910F01FE01E25872
:10209000FE4F8081813009F434C108F4A6C082303B
:1020A00009F099C0FE01E458FE4F80819181181615
:1020B00019060CF0C5C14FEF50E06FEF20E030E0A3
:1020C00073E1729FF001739FF00D1124EC0FFD1F5F
:1020D0002281261728F43481323010F04081622F9B
:1020E0005F5F252F30E0281739075CF350E06881E7
:1020F00079814617570709F42DC2A0E0B3E10EC05D
:10210000B29FF001B39FF00D1124EC0FFD1F019061
:10211000F081E02D4E175F0709F41EC2AF5F2A2F32
:1021200030E02817390764F31FEFA0E0B3E10EC0D9
:10213000B29FF001B39FF00D1124EC0FFD1F019031
:10214000F081E02D4E175F0709F415C2AF5F2A2F0B
:1021500030E02817390764F31E3208F474C1AFEF7A
:1021600040E05FEF20E030E0B3E1B29FF001B39FC9
:10217000F00D1124EC0FFD1F2281251728F4348166
:10218000323010F0A081522F4F5F242F30E02817FB
:1021900039075CF3B0E0A617B70709F42FC260E077
:1021A00073E10DC0729FF001739FF00D1124EC0FCD
:1021B000FD1F40815181A417B50709F421C26F5F4B
:1021C000262F30E0281739076CF3FE01E357FE4F46
:1021D0008081811129C2DF91CF911F910F91FF90D2
:1021E000EF90DF90CF90BF9008950E94A70C8111CF
:1021F0003BC1FE01E458FE4F00811181101611060B
:102200000CF0C4C25FEF20E03FEF80E090E043E1DC
:10221000489FF001499FF00D1124EC0FFD1F8281B2
:10222000831728F49481923010F05081382F2F5F5B
:10223000822F90E0801791075CF3E52EF12CC88087
:10224000D980EC14FD0409F479C140E053E10DC0DC
:10225000589FF001599FF00D1124EC0FFD1F2081B4
:102260003181E216F30609F46BC14F5F842F90E0D1
:10227000801791076CF3BB24BA94FE01E257FE4F1E
:102280002081318142815381FE01EE56FE4F6081F3
:102290007181828193810E942E252DEC3CEC4CE4CF
:1022A0005FE30E942A2587FD72C110161106B4F45F
:1022B0008B81811138C120E033E10AC0389FF001E1
:1022C000399FF00D1124EC0FFD1F838181112BC16B
:1022D0002F5F822F90E08017910784F3C757DE4F5E
:1022E00088819981AA81BB810097A105B10509F474
:1022F00072CF0197A109B10988839983AA83BB830F
:102300006ACF0E94020E81119EC0C458DE4F8881A0
:102310009981181619060CF05ECF0E94521A182FD8
:102320000E94521AA0910E01B0910F01FD01E458D4
:10233000FE4F20813181121613060CF06FC0CFEFD3
:1023400090E06FEF40E050E073E1749FF001759F03
:10235000F00D1124EA0FFB1F4281461728F4548127
:10236000523010F0C081642F9F5F492F50E0421718
:1023700053075CF3D0E0ED90FC901197CE15DF058C
:1023800009F485C190E003E10DC0049FF001059FB1
:10239000F00D1124EA0FFB1F60817181C617D7076A
:1023A00009F477C19F5F492F50E0421753076CF340
:1023B0006FEF40E05FEF80E090E073E1789FF00125
:1023C000799FF00D1124EA0FFB1F8281851728F4F5
:1023D0009481923010F06081582F4F5F842F90E0ED
:1023E000821793075CF370E06E157F0509F42AC12C
:1023F000C0E0D3E10DC0D89FF001D99FF00D1124AA
:10240000EA0FFB1F408151816417750709F41CC155
:10241000CF5F8C2F90E0821793076CF3A058BE4FCC
:10242000CC91C23009F4A2C181E00E94CF16E091A4
:102430000E01F0910F01E158FE4F81E08083CBCE79
:10244000892B09F0C2CE60E080E00E94A119809142
:102450000E0190910F01FC01E158FE4F1082FC012A
:10246000E258FE4F1082B7CE0E94A619A0910E012D
:10247000B0910F01FD01E458FE4F20813181121609
:102480001306CCF56FEF40E05FEF80E090E073E182
:10249000789FF001799FF00D1124EA0FFB1F8281D4
:1024A000851728F49481923010F06081582F4F5F87
:1024B000842F90E0821793075CF370E08D919C91DC
:1024C00011976817790709F42AC1C0E0D3E10DC05C
:1024D000D89FF001D99FF00D1124EA0FFB1F408116
:1024E00051816417750709F41CC1CF5F8C2F90E0F0
:1024F000821793076CF36091140480E00E94A11985
:10250000C0910E01D0910F01FE01E158FE4F82E013
:102510008083FE01E058FE4F8083FE01E258FE4FAB
:1025200081E0808366CEC757DE4F80E49FE1A0E064
:10253000B0E088839983AA83BB834DCE80E090E08E
:1025400023E1289FF001299FF00D1124EC0FFD1FBE
:10255000B28093CE20E030E0A3E1A29FF001A39FE0
:10256000F00D1124EC0FFD1F12814617570709F0DB
:10257000DCCD20E030E043E1429FF001439FF00DCD
:102580001124EC0FFD1F238121115DCFE5CDCE1469
:10259000DF0409F4A9C040E053E10DC0589FF001E9
:1025A000599FF00D1124EC0FFD1F208131812E1554
:1025B0003F0509F49BC04F5F842F90E0801791077F
:1025C0006CF38CE38B1508F073CEFE01E258FE4FDE
:1025D00082E08083C158DE4F88830E94CF16C0916D
:1025E0000E01D0910F01FE01E357FE4F81E0808381
:1025F000FE01E458FE4F0081118157CE20E030E00B
:1026000083E1829FF001839FF00D1124EC0FFD1FE9
:1026100085819681FE01E357FE4F2081222379F0C8
:10262000181619060CF0D7CD1082C158DE4F8881DC
:10263000813009F48FC0823009F0CDCDF5CE97FFFF
:10264000CACDFBCE80E090E023E1289FF001299FD6
:10265000F00D1124EA0FFB1FC2818C2F90E08D97A3
:1026600094F4A058BE4F8C91823009F44BC082E0A4
:102670000E94CF16A0910E01B0910F01FD01E1580B
:10268000FE4F82E08083CD3208F4A5CDC7CE40E076
:1026900050E093E1949FF001959FF00D1124EA0F13
:1026A000FB1F9281983208F083CE1D3709F080CE4F
:1026B000893708F47DCE6DE78DE70E94A11986E980
:1026C00090E00E949619A0910E01B0910F01FD01BA
:1026D000E458FE4F20813181121613060CF09ECE75
:1026E000ED90FC90119764CE80E090E023E1289F6C
:1026F000F001299FF00D1124EC0FFD1F8381811142
:10270000D7CD5FCF81E00E94CF16A0910E01B0918E
:102710000F01FD01E158FE4F81E08083B4CF80E0DE
:1027200090E023E1289FF001299FF00D1124EA0F8A
:10273000FB1F82818D3208F0DECE0E94521A8F3745
:1027400000F560E08DE70E94A11984EF91E00E94FE
:102750009619D1CE82E00E94CF16E0910E01F09141
:102760000F01E158FE4F82E0808335CD82E00E9468
:10277000CF16E0910E01F0910F01E158FE4FC0839A
:102780002ACD6DE780E00E94A119DFCFFE01E2575C
:10279000FE4F2081318142815381FE01EE56FE4F72
:1027A00060817181828193810E942E252DEC3CEC09
:1027B0004CE45FE30E942A2587FD90CD76CD2F92D1
:1027C0003F924F925F926F927F928F929F92AF92C1
:1027D000BF92CF92DF92EF92FF920F931F93CF930E
:1027E000DF9300D000D0CDB7DEB70E94840A80917D
:1027F0000E0190910F01FC01E258FE4F2081215003
:10280000223050F0FC01E458FE4F8081918118166F
:10281000190614F40E9494058091EE039091EF0341
:10282000A091F003B091F1038A3F9105A105B10594
:1028300009F4EFC18091EE039091EF03A091F003B2
:10284000B091F103893F9442A140B10508F0DAC18B
:1028500080910E0190910F01FC01E258FE4F208102
:10286000213009F454C2223009F455C2FC01EF575B
:10287000FE4FC080D180E280F38020E030E040E86D
:1028800050E4C701B6010E94792618160CF032C137
:102890008CE00E94CC1D60912404709125048090EE
:1028A0000E0190900F01F401E458FE4F2081318118
:1028B00012161306FCF4AB015527D4018D919C919F
:1028C0008417950709F45CC1A0E0B3E10DC0B89F7F
:1028D000F001B99FF00D1124E80DF91D808191815F
:1028E0008417950709F44CC1AF5F8A2F90E08217D7
:1028F00093076CF36B010FEF020F07FD36C013E176
:102900005401B4E8AB1ABEEFBB0A8091EE0390917C
:10291000EF03A091F003B091F103010370011124C2
:10292000E80CF91CF7014785508961897289841B7D
:10293000950BA60BB70B81349105A105B10590F05D
:1029400021503109129FF001139FF00D1124E80D61
:10295000F91DD701812F01900D928A95E1F7D501DC
:102960002D933C93015007FFD0CF81E0F401EE5549
:10297000FE4F8083F401E156FE4F1082C4018A5657
:102980009E4FFC01C082F401E956FE4FD082F40153
:10299000E856FE4F2083F401E258FE4F2081F401F7
:1029A000E356FE4F2083F401EF57FE4F0081118163
:1029B00022813381B901A801F7E175956795579593
:1029C0004795FA95D1F750E0DA01AF57B109A13137
:1029D000B10514F0A0E1B0E0B901A8016F77772745
:1029E000EDE07695679557954795EA95D1F774018F
:1029F000F7E6EF1AFEEFFF0AA13FEFEFBE0714F470
:102A0000A1EFBFEFA15FAA0FAA0F330F000B102F8A
:102A100098010795002707950A2B052BD7010C93E2
:102A2000F401E556FE4F4083F401EB57FE4F008161
:102A3000118122813381B901A801A7E175956795BC
:102A400057954795AA95D1F750E0DA01AF57B109EC
:102A5000A131B10514F0A0E1B0E0B901A8016F7790
:102A60007727EDE07695679557954795EA95D1F7E5
:102A70007401E6E6EE1AEEEFFE0AA13FFFEFBF0794
:102A800014F4A1EFBFEFA15FAA0FAA0F330F000B41
:102A9000102F98010795002707950A2B052BD701C2
:102AA0000C93F401E456FE4F40830E941520F4017C
:102AB000E056FE4F91838083E0910E01F0910F016B
:102AC000EE55FE4F10820F900F900F900F90DF91F8
:102AD000CF911F910F91FF90EF90DF90CF90BF901B
:102AE000AF909F908F907F906F905F904F903F90AE
:102AF0002F90089520E030E040E450E4C701B60193
:102B00000E947926181674F120E030E040E050E48D
:102B1000C701B6010E94792618165CF420E030E067
:102B200040E450E4C701B6010E942A2518160CF0B3
:102B30006CC020E030E040E85FE3C701B6010E94CE
:102B4000792618165CF420E030E040E050E4C7013C
:102B5000B6010E942A2518160CF0E1C080E00E9400
:102B6000CC1D99CE20E030E040E850E4C701B6012A
:102B70000E942A25181644F28CE30E94CC1D8BCEAD
:102B80000E94521A13E1A0910E01B0910F01FD01B4
:102B9000E458FE4F4081518190E014161506D4F49C
:102BA0002D913C9111972817390749F160E00CC02D
:102BB000129FF001139FF00D1124EA0FFB1F2081DB
:102BC000318128173907D9F06F5F262F30E024179D
:102BD000350774F390932504809324048FE00E94BA
:102BE000CC1D80900E0190900F01F401E458FE4F2F
:102BF00020813181C0902404D09025047CCE0E9495
:102C0000521AC1CF0E94391023CE80E30E94CC1DFE
:102C100042CE00910E0110910F01F801E458FE4FD1
:102C2000208131813A83298378013EE6E31A3EEF21
:102C3000F30AA981BA81BD01882777FD8095982F75
:102C40000E94C925F7016083718382839383298160
:102C50003A81121613060CF066C0312C412C512C0F
:102C600032015301420180E090E0A3E12A2E289E28
:102C7000D001299EB00D1124A00FB11FBC83AB83DE
:102C800012966C9170E080E090E00E94C7259B0155
:102C9000AC0160E070E080E89FE30E942E256B01AC
:102CA0007C01EB81FC81648170E080E090E00E9417
:102CB000C7259B01AC01C701B6010E947D269B017F
:102CC000AC01C501B4010E94C6244B015C01A701FF
:102CD0009601C301B2010E94C6242B013C0133942A
:102CE000832D90E029813A81821793070CF4BFCF9E
:102CF00002571E4FA3019201C501B4010E942E2567
:102D0000D8016D937D938D939C93139793CD8FE30F
:102D10000E94CC1DC0CD83E00E94CC1DBCCD83E3BE
:102D20000E94CC1DB8CD412C512C320153014201DF
:102D3000DFCFCF93DF93C82FD62F81111AC0662320
:102D400091F080E09091B40061E091111EC0619516
:102D5000811103C0662339F06FEF0E94A1198FE043
:102D600090E00E9496196D2F8C2FDF91CF910C94DB
:102D7000A1199091B30081E091110CC08195D111FE
:102D8000E1CF882381F360E0E8CF60E0619588239C
:102D900009F3E3CF80E08195DD2399F3D3CFCF937F
:102DA000DF938130D9F1A0F18230C9F0833069F529
:102DB000D0912704C0912604CC2309F445C09091FA
:102DC000B30081E0911180E08195D11140C009F0FC
:102DD00055C06D2F8C2FDF91CF910C94A119C0910C
:102DE0001404CC2361F08091B400811108C06FEF0E
:102DF00080E00E94A1198FE090E00E9496196C2F4C
:102E000080E0DF91CF910C94A119DF91CF910895CB
:102E100060E080E0DF91CF910C94A119C09128046B
:102E2000CC2361F08091B300811108C060E08FEF86
:102E30000E94A1198FE090E00E94961960E08C2F0B
:102E4000DF91CF910C94A119DD2319F280E09091CC
:102E5000B40061E0911160E06195811103C009F453
:102E6000B8CF6FEF0E94A1198FE090E00E949619F1
:102E70006D2F8C2FDF91CF910C94A11960E0F2CFD0
:102E8000089580E090E008950895DF92EF92FF9218
:102E90000F931F93CF93DF93F89414B817B81AB811
:102EA00015B818B81BB8529A5A9A14BC85E085BD5B
:102EB0008FEF87BD22E020936E0010928000109269
:102EC00081008FE89BE09093890080938800209395
:102ED0006F005398239881EA8093B0002093B1004B
:102EE0001092B4001092B3008BE080BF83E0809317
:102EF0007F0086E080937C0083E880937A00809155
:102F00007A00806480937A0080917A0086FDFCCFFD
:102F100010927C0083EA80937A0081E080937B00AA
:102F200081E090E00E944E2A8F3F11F0809366006E
:102F30001092F203C1E0C093CB03C0930F04109230
:102F4000E9031092230480E990E00E944E2A8093C6
:102F5000E8038091E803887311F0C093E8031092AE
:102F60001304109212048FEF90E090931104809359
:102F700010041092EE031092EF031092F0031092DF
:102F8000F10381E08093250182E49FE09093220485
:102F90008093210480EB90E00E944E2AC82F81EBA1
:102FA00090E00E944E2A2C2F30E0382B30932504DD
:102FB0002093240485E090E00E944E2A8093280408
:102FC00089E090E00E944E2A809314048CE090E007
:102FD0000E944E2A8093260484E190E00E944E2AAB
:102FE0008093270453EFE52E53E0F52E0CEC13E00D
:102FF000C0E2D0E0CE010E944E2AD82ECE0101962A
:103000000E944E2A2D2D30E0322F2227282BF70147
:10301000219331937F01CE01C0960E944E2AD82E73
:10302000CE01C1960E944E2A2D2D30E0322F22274C
:10303000282BF801219331938F012296CC33D105AF
:10304000C9F67894DF91CF911F910F91FF90EF9087
:10305000DF9008951F920F920FB60F9211248F9355
:1030600088E10FB6F89480936000109260000FBE64
:103070008F910F900FBE0F901F9018957C01EB0160
:10308000D12C88248A9464E0B62E76E0972EE3E86B
:10309000AE2E08E110E0F9E2CF2EE0912501F0E03C
:1030A000E730F105D0F7EC5CFF4F0C94AB24DD204A
:1030B00009F4FDC0B0922501DD24D394FE010995E9
:1030C000ECCF8091F2038111EBC0F89490927C00D8
:1030D000A0927A0080917A00806480937A00809137
:1030E0007A0086FDFCCF20917800309179007894A9
:1030F0002B3A92E039070CF0EDC02938E2E03E07A8
:103100000CF0EFC0273632400CF4CAC0559A549ADE
:103110003B9A3A9A3D983C98C0CFF89480B7877F05
:1031200080BF80917A008F7780937A0014B817B8A7
:103130001AB815B818B81BB80FB6F894A89500932C
:1031400060000FBEC0926000809160008064809338
:10315000600083B7817F846083BFF89483B7816008
:1031600083BF7894889583B78E7F83BF78941092BD
:10317000F203529A5A9A80917A00806880937A007A
:1031800087E592E00197F1F700C0000080B7886101
:1031900080BF559A549A3B9A3A9A3D9A3C9AEFE1ED
:1031A000FEE43197F1F700C000008091F203811135
:1031B00081C0559854983B983A983D983C986DCF6B
:1031C00080912301811141C01092B3001092B4008C
:1031D0001092240162CF4899ECCF559A54983B98AD
:1031E0003A983D983C988FEC97E00197F1F700C032
:1031F0000000559854983B983A983D983C989FEF1A
:10320000E1EEF4E09150E040F040E1F700C0000052
:1032100044CF559854983B9A3A9A3D983C98EFEC95
:10322000F7E03197F1F700C00000559854983B98AB
:103230003A983D983C98FFEF21EE84E0F150204011
:103240008040E1F700C0000028CF909123018091D9
:103250002401981709F421CF809123018093240140
:1032600080912301813009F450C080912301109294
:10327000B3008092B4008230D9F18092B300809282
:10328000B4008FE295E70197F1F700C0000080914C
:103290002704909126049093B3008093B400FDCE50
:1032A000559A549A3B983A983D983C98F6CEF70137
:1032B000099500CF559A549A3B983A983D983C9876
:1032C000FFEF20E782E0F15020408040E1F700C0AE
:1032D00000006FCF559854983B9A3A9A3D983C9885
:1032E000DCCE559854983B983A983D9A3C9AD5CE66
:1032F000EFE2F5E73197F1F700C000008091140488
:103300001092B3008093B400C8CE8092B3001092A4
:10331000B4008FE295E70197F1F700C000008091BB
:1033200028048093B3001092B400B7CE07C0EFEC2E
:10333000F7E03197F1F700C0000001970097B9F767
:1033400008958093B3006093B40008958FEF809345
:10335000B3008093B4008FE090E0EFECF7E031979A
:10336000F1F700C0000001970097B9F70895809128
:10337000F20381111EC0F89487E080937C0083E8FB
:1033800080937A0080917A00806480937A008091A3
:103390007A0086FDFCCF80917800909179001092A0
:1033A0007C0023EA20937A0021E020937B0078942C
:1033B00008958FEF9FEF08958091F20381111EC051
:1033C000F89488EC80937C0087E880937A00809161
:1033D0007A00806480937A0080917A0086FDFCCF29
:1033E000809178009091790010927C0023EA2093DC
:1033F0007A0021E020937B00789408958FEF9FEF6F
:1034000008951F93CF93DF9360E070E080E013EAAC
:10341000D1E0C6E0B3E8E1E0F0E020E830E0F89485
:10342000C0937C00B0937A0090917A00906490935E
:103430007A0090917A0096FDFCCF409178005091EF
:103440007900A42FA17090917A00906490937A00F3
:1034500090917A0096FDFCCF4091780050917900D0
:1034600010927C0010937A00D0937B007894417086
:10347000A41305C0215031092115310581F6AA2375
:1034800039F09F01062E01C0220F0A94EAF7822B21
:103490006F5F7F4F6830710509F0BFCFDF91CF912B
:1034A0001F91089580911001982F990F990F990FEE
:1034B00098278091220121E0280F209322018695F0
:1034C0008695892792959695977089278093100104
:1034D00008958093100108958091F203811116C020
:1034E000F89486E080937C0083E880937A00809152
:1034F0007A00806480937A0080917A0086FDFCCF08
:103500008091780090917900789408958FEF9FEFE3
:1035100008952F923F924F925F926F927F928F9277
:103520009F92AF92BF92CF92DF92EF92FF920F9352
:103530001F93CF93DF9300D000D000D0CDB7DEB77C
:103540008C01DC0112960D90BC91A02DBE83AD8341
:10355000A438E3E0BE070CF0CAC08091CC03909180
:10356000CD038A179B0708F4A9C16090CE03709021
:10357000CF036A167B0608F427C26090D0037090D0
:10358000D1036A167B0608F428C26090D2037090BB
:10359000D3036A167B0608F429C26090D4037090A6
:1035A000D5036A167B0608F42AC26090D603709091
:1035B000D7036A167B0608F48BC16090D80370901D
:1035C000D9036A167B0608F423C26090DA03709070
:1035D000DB036A167B0608F424C26090DC0370905B
:1035E000DD036A167B0608F425C26090DE03709046
:1035F000DF036A167B0608F426C26090E003709031
:10360000E1036A167B0608F427C26090E20370901B
:10361000E3036A167B0608F42DC26090E403709001
:10362000E5036A167B0608F42EC26090E6037090EC
:10363000E7036A167B0608F42FC280E090E0A0ED55
:10364000B0E489839A83AB83BC838CE0E82EF12CB1
:10365000F701EE0FFF1FE453FC4F80819181B3010E
:10366000681B790B80E090E00E94C7259B01AC01AC
:103670000E94C6246B017C01AD81BE81BD018827FB
:1036800077FD8095982F0E94C9254B015C01B301FD
:1036900080E090E00E94C7252B013C0129813A81FE
:1036A0004B815C81C701B6010E947D269B01AC0164
:1036B000C301B2010E94C5249B01AC01C501B40144
:1036C0000E94C52420E030E040E251E40E947D26C3
:1036D0000E9496255B01C701B6010E949625AB01A9
:1036E000BC01C501BA010E946024762EE8C077248F
:1036F0007A94D801AD90BC908091F3039091F4033B
:103700008A159B0508F46FC00091F5031091F6032C
:103710000A151B0508F45CC10091F7031091F8032A
:103720000A151B0508F45DC10091F9031091FA0315
:103730000A151B0508F45EC10091FB031091FC0300
:103740000A151B0508F45FC10091FD031091FE03EB
:103750000A151B0508F4D8C00091FF03109100045E
:103760000A151B0508F458C10091010410910204C8
:103770000A151B0508F459C10091030410910404B3
:103780000A151B0508F45AC100910504109106049E
:103790000A151B0508F45BC1009107041091080489
:1037A0000A151B0508F45CC10091090410910A0474
:1037B0000A151B0508F459C100910B0410910C0463
:1037C0000A151B0508F45AC100910D0410910E044E
:1037D0000A151B0508F45BC11AE5BFEF7B1207C091
:1037E00081E2810F52C010E0BFEF7B16C9F3ED817B
:1037F000FE81BF01882777FD8095982F0E94C925FB
:103800006B017C01672D70E080E090E00E94C7258D
:103810004B015C01A701960160E070E081E694E451
:103820000E94C5249B01AC01C501B4010E947D2604
:103830004B015C01612F70E080E090E00E94C725A1
:103840002B013C0120E030E04FE254E4C701B60117
:103850000E94C5249B01AC01C301B2010E947D26D8
:103860009B01AC01C501B4010E94C62420E030E0F8
:1038700048E453E40E942E2520E030E044E052E486
:103880000E94C6240E949B25862F26960FB6F89488
:10389000DEBF0FBECDBFDF91CF911F910F91FF9083
:1038A000EF90DF90CF90BF90AF909F908F907F90E0
:1038B0006F905F904F903F902F900895712CED8105
:1038C000FE81ED3BF2400CF014CF81E2870DDDCF9D
:1038D00065E085E090E07C01F1E0EF1AF10870E02E
:1038E00080E090E00E94C72520E030E040E05FE308
:1038F0000E947D2620E030E0A9010E94C624698351
:103900007A838B839C83A4CE75E0672EE5E0F0E09C
:10391000EE0FFF1FEF50FC4F80819181B801681BB3
:10392000790B80E090E00E94C7259B01AC010E94CA
:10393000C6246B017C01B501882777FD8095982FFF
:103940000E94C9254B015C01B80180E090E00E9413
:10395000C7251B012C01662D70E080E090E00E94DD
:10396000C72520E030E040E05FE30E947D2620E0B4
:1039700030E0A9010E94C624A70196010E947D267D
:103980009B01AC01C201B1010E94C5249B01AC01A5
:10399000C501B4010E94C52420E030E040E251E4BA
:1039A0000E947D260E9496258B01C701B6010E94C8
:1039B0009625AB01BC01C801BA010E946024162FF4
:1039C0006F3F09F011CF81CF61E081E090E083CFBC
:1039D00066246394E1E0F0E09BCF62E082E090E057
:1039E0007ACFA2E06A2EE2E0F0E092CF63E083E0DB
:1039F00090E071CFF3E06F2EE3E0F0E089CF64E078
:103A000084E090E068CFE4E06E2EE4E0F0E080CF68
:103A100066E086E090E05FCF66E0662EE6E0F0E0EC
:103A200077CF67E087E090E056CF57E0652EE7E07C
:103A3000F0E06ECF68E088E090E04DCF48E0642E83
:103A4000E8E0F0E065CF69E089E090E044CF39E05C
:103A5000632EE9E0F0E05CCF6AE08AE090E03BCFE3
:103A60002AE0622EEAE0F0E053CF9BE0692EEBE023
:103A7000F0E04ECF6BE08BE090E02DCF8CE0682E35
:103A8000ECE0F0E045CF6CE08CE090E024CFBDE0CE
:103A90006B2EEDE0F0E03CCF6DE08DE090E01BCFD1
:103AA0001F920F920FB60F9211242F933F934F93B3
:103AB0005F936F937F938F939F93AF93BF93EF9396
:103AC000FF9380911204909113042091100430917F
:103AD0001104820F931F90931304809312048FEFAD
:103AE00090E090931104809310048FEF87BD809134
:103AF000EE039091EF03A091F003B091F1030196D2
:103B0000A11DB11D8093EE039093EF03A093F003EA
:103B1000B093F1038091F20381110FC080912104D1
:103B2000909122042091120430911304821793077C
:103B300020F480912501843089F0FF91EF91BF91AD
:103B4000AF919F918F917F916F915F914F913F9135
:103B50002F910F900FBE0F901F901895E0911301B9
:103B6000F09114010995009741F30E942E208111D4
:103B700009C00E9493289927909311048093100400
:103B800087BDDBCFE0911101F091120109951092F0
:103B9000130410921204D1CF80FF11C0559A81FFF7
:103BA00011C0549A82FF11C03B9A83FF11C03A9A08
:103BB00084FF11C03D9A85FD11C03C980895559829
:103BC00081FDEFCF549882FDEFCF3B9883FDEFCF7F
:103BD0003A9884FDEFCF3D9885FFEFCF3C9A08954A
:103BE0001F920F920FB60F9211248F939F931092F2
:103BF0008100109285001092840081E08093CB03B5
:103C000080930F041092F20310927C0093EA909339
:103C10007A0080937B009F918F910F900FBE0F9041
:103C20001F9018951F920F920FB60F9211242F9389
:103C30003F934F935F936F937F938F939F93AF9334
:103C4000BF93CF93DF93EF93FF9320918400309144
:103C5000850041E04093F2038091CB038823A9F1D2
:103C600010928500109284004093810010922304EA
:103C70001092CB0380910F048823A1F080917A00E9
:103C800086FDFCCF80917800909179009093ED03B0
:103C90008093EC0381E080937C0093EA90937A0018
:103CA00080937B00FF91EF91DF91CF91BF91AF9116
:103CB0009F918F917F916F915F914F913F912F9144
:103CC0000F900FBE0F901F901895C901875891094A
:103CD0008437994008F04FC026583109A4EFB0E06E
:103CE0000E945124AA27BB27883008F47BC0409348
:103CF000CB0380910F04811152C08091E903E82F1A
:103D0000F0E0EB5EFB4F9091230490838F5F8093F4
:103D1000E9038C3039F610928100109285001092E0
:103D2000840040930F041092F203C0911F04D091BD
:103D3000200485E194E00E941520C817D90709F0F6
:103D4000B1CF80911E0487FF5EC098E7980F933033
:103D500030F0539823981092B4001092B30090E082
:103D6000FC01E058F109EB30F10508F09BCFE55C70
:103D7000FF4F0C94AB24109281001092850010929A
:103D800084004093CB0340930F041092F2031092EF
:103D90007C0083EA80937A0040937B0083CF8091FC
:103DA0007A0086FDFCCF8091780090917900909305
:103DB000EB038093EA0310927C0083EA80937A00FD
:103DC00081E080937B00909123049923B9F01092B5
:103DD0008100109285001092840080930F0410924D
:103DE000F20360CF21E030E001C0220F8A95EAF7AC
:103DF00080912304822B8093230454CF10920F04CC
:103E00001092E9034FCFE0911501F09116016AEE8F
:103E100073E085E194E0099545CF809115048230E7
:103E200009F4DCC008F4B9C0833009F4C5C084309B
:103E300009F0B0C08091230190911B04833009F4F4
:103E4000E2C080911A041092240123E02093230100
:103E5000809326049093270480912501863009F4ED
:103E600021CF539A239A1092B4001092B30086E0A7
:103E70008093250117CF80912501863099F0539AC0
:103E8000239A1092B4001092B300559854983B981E
:103E90003A983D983C98109223011092240186E0B4
:103EA0008093250181E090E00090150402C0880F06
:103EB000991F0A94E2F7209124043091250482236B
:103EC0009323892B09F086C010922301EBCE81E069
:103ED00080932501E7CEE0E0F0E0099580916E0047
:103EE0008D7F80936E0016BCE0E0F0E7099510929C
:103EF0002501D8CE82E080932501D4CE85E0809341
:103F00002501D0CE80912501833009F4CBCE80915C
:103F10002501843009F4C6CE539A239A1092B40036
:103F20001092B30083E080932501BCCE80912501DF
:103F3000863009F0B7CE6091240480EB90E00E94B7
:103F4000562A6091250481EB90E00E94562A6091E8
:103F5000280485E090E00E94562A6091140489E0CC
:103F600090E00E94562A609126048CE090E00E9426
:103F7000562A6091270484E190E00E94562A5398C3
:103F800023981092B4001092B30081E08093250131
:103F900080911504811160CF85CE882339F281305C
:103FA000C9F780911604909117049093250480938B
:103FB00024041092230150CF80912301823071F1AB
:103FC000809119041092240192E090932301809330
:103FD000140442CF81E08093230164CE80912301B9
:103FE000813051F0809118041092240191E0909357
:103FF00023018093280430CF8091180490912804E5
:104000008913F2CF29CF8091270498131ACF80917A
:104010001A0420912604821316CF1ECF8091190412
:10402000909114048913CECF17CFFC012AE08FEFB3
:104030009FEF31918327082E8295807F8025092E5E
:10404000982F82958F700826869598278927880F44
:10405000880F880F8025215061F708950FB6F894D6
:10406000A4B12091E8032A2B24B921E03091E80380
:10407000203029F0000025B1232B25B904C0000011
:104080000000000000C0000000000000309525B1D5
:10409000232325B92EEA2A95F1F72BEE30B735FF09
:1040A0000AC0A4B93091E803309525B1232325B97E
:1040B0000FBE80E0089500002A9581F721E030913D
:1040C000E803203029F0000025B1232B25B904C0D6
:1040D00000000000000000C000000000000030955B
:1040E00025B1232325B9000024E52A95F1F7FC0129
:1040F0008CE0619170E0660F771F616072609AE0FA
:1041000041E050E09A0126233723232B3091E80326
:10411000203029F0000025B1232B25B904C0000070
:104120000000000000C0000000000000309525B134
:10413000232325B9000021E52A95F1F7440F551FE7
:104140009A9501F78A95A9F620B7206120BFA4B9F6
:104150003091E803309525B1232325B90FBE81E0C6
:104160000895A3E1B0E0E7EBF0E20C9474247C0145
:104170001B016A01FC0117821682838181FF66C3DD
:10418000BE016F5F7F4F4B01F7019381F10193FDFA
:10419000859193FF81911F01882309F453C38532D0
:1041A00039F493FD859193FF81911F01853239F494
:1041B000B70190E00E94912956016501E5CF10E01A
:1041C000512C20E02032A0F48B3269F030F48032A0
:1041D00059F0833269F420612CC08D3239F080337C
:1041E00039F4216026C02260246023C0286021C0E9
:1041F00027FD27C030ED380F3A3078F426FF06C08F
:10420000FAE01F9F300D1124132F13C06AE0569E51
:10421000300D1124532E20620CC08E3221F426FD65
:1042200011C3206406C08C3611F4206802C08836A1
:1042300041F4F10193FD859193FF81911F0181115B
:10424000C1CF9BEB980F933018F42061805E06C0BD
:104250009BE9980F933008F0AAC12F7E26FF16E045
:104260002F73722E853621F4F22FF0647F2E08C052
:10427000863621F4622F6068762E02C0111111502B
:1042800077FE07C01C3348F444244394410E27E0D2
:104290000BC0183030F4212F06C027E04CE3442E29
:1042A00003C027E017E0412C560174E0A70EB11CB3
:1042B000F6016081718182819381042DA4010E94A5
:1042C000A3286C01098100FF02C003FF06C071FC36
:1042D00007C072FC08C0612C08C03DE2632E05C017
:1042E0002BE2622E02C090E2692E802F8C7099F131
:1042F000662011F084E001C083E0851510F0512C98
:104300000BC0581A73FC08C0B70180E290E00E940D
:1043100091295A94C9F7F3CF662029F0B701862D69
:1043200090E00E94912903FD03C002E111E002C068
:104330000EE011E0F72DF0717F2EF80184918823B3
:1043400009F476C271108052B70190E00E94912961
:104350000F5F1F4FF2CF77FE0FC04C0C04FF04C05D
:104360008A81813309F44A94141474F5F8E0F41541
:1043700078F588E0482E2CC076FC2AC0812F90E08A
:104380008C159D059CF06CEFC6166FEFD60674F089
:10439000772D7068772E0AC0E2E0F0E0EC0FFD1F89
:1043A000E10FF11D8081803319F411501111F4CF08
:1043B00077FE0EC044244394410E812F90E0C8162E
:1043C000D9062CF41C1904C04424439401C010E005
:1043D00077FE07C01C141D043CF496012F5F3F4F6D
:1043E00005C025E030E002C021E030E0662011F099
:1043F0002F5F3F4F112331F0412F50E04F5F5F4F50
:10440000240F351F452D50E02417350714F4521A98
:1044100001C0512C872D897049F4552039F0B7011E
:1044200080E290E00E9491295A94F7CF662029F00B
:10443000B701862D90E00E94912973FC09C0552098
:1044400039F0B70180E390E00E9491295A94F7CFA8
:1044500077FE5FC09C2D8D2DD7FE02C090E080E0DE
:10446000692E782E40E050E0C601841991099D879D
:104470008C87960126193709280D391D812F90E068
:10448000EE27FF27E81BF90BFF87EE87FFEF6F167C
:104490007F0669F4B7018EE290E02B8B3A8B488B54
:1044A000598B0E949129598948893A892B89C614C8
:1044B000D70454F06C857D85661577052CF4F901D9
:1044C000E40FF51F818101C080E371E0671A710874
:1044D0004F5F5F4FEE85FF856E167F066CF0B7016C
:1044E00090E02B8B3A8B488B598B0E9491292B891A
:1044F0003A8948895989CACF6C147D0439F49A8164
:10450000963318F4953311F404FF81E3B70190E07A
:104510004BC08A81813309F00F7EB70190E00E9481
:104520009129111105C074FE18C085E490E017C0F0
:10453000B7018EE290E00E94912982E066246394A4
:10454000680EF401E80FF11D8081B70190E00E9430
:104550009129115041F3862DF1CF85E690E0B70106
:104560000E949129D7FC05C0C114D10439F404FF7D
:1045700005C0D194C194D1088DE201C08BE2B7018E
:1045800090E00E94912980E36AE0C616D1042CF0E5
:104590008F5FFAE0CF1AD108F7CFB70190E00E9401
:1045A0009129B701C601C0960E94912941C1833665
:1045B00031F0833779F0833509F058C021C05601B6
:1045C00072E0A70EB11CF6018081898301E010E042
:1045D000640114C05601F2E0AF0EB11CF601C080B8
:1045E000D18026FF03C0612F70E002C06FEF7FEF24
:1045F000C6012B8B0E9486298C012B892F7715C031
:104600005601F2E0AF0EB11CF601C080D18026FF4A
:1046100003C0612F70E002C06FEF7FEFC6012B8BEC
:104620000E947B298C012B892068722E23FD1AC0E1
:10463000852D90E008171907A8F4B70180E290E0F3
:104640000E9491295A94F4CFF60177FC859177FE68
:1046500081916F01B70190E00E94912951105A9405
:10466000015011090115110579F7E2C0843611F0E6
:10467000893651F5560127FF09C0F4E0AF0EB11C91
:10468000F60160817181828193810AC0F2E0AF0EF0
:10469000B11CF60160817181882777FD8095982F84
:1046A000022F0F7697FF08C09095809570956195C1
:1046B0007F4F8F4F9F4F00682AE030E0A4010E9497
:1046C000F029C82EC8183EC0022F853721F40F7E6E
:1046D0002AE030E01DC0097F8F3691F018F488354C
:1046E00059F0B0C0803719F0883711F0ABC00061C5
:1046F00004FF09C0046007C024FF08C0066006C0AC
:1047000028E030E005C020E130E002C020E132E0E6
:10471000560107FF09C0F4E0AF0EB11CF60160813D
:1047200071818281938108C0F2E0AF0EB11CF60165
:104730006081718180E090E0A4010E94F029C82E80
:10474000C8180F7706FF0BC0202F2E7FC11650F41C
:1047500004FF0AC002FD08C0202F2E7E05C0DC2CFD
:10476000202F03C0DC2C01C0D12E24FF0DC0FE0180
:10477000EC0DF11D8081803311F4297E09C022FFE8
:1047800006C0D394D39404C0822F867809F0D394C2
:1047900023FD13C020FF06C01C2DD51418F4150DE1
:1047A0001D19D52CD51468F4B70180E290E02B8B4D
:1047B0000E949129D3942B89F5CFD51410F45D185C
:1047C00001C0512C24FF12C0B70180E390E02B8B75
:1047D0000E9491292B8922FF17C021FF03C088E581
:1047E00090E002C088E790E0B7010CC0822F867885
:1047F00059F021FD02C080E201C08BE227FD8DE26D
:10480000B70190E00E949129C11638F4B70180E306
:1048100090E00E9491291150F7CFCA94F401EC0D59
:10482000F11D8081B70190E00E949129C110F5CF60
:10483000552009F4C2CCB70180E290E00E94912992
:104840005A94F6CFF7018681978102C08FEF9FEFD0
:104850006396E2E10C9490240E9445170E94CD02D9
:1048600080910E0190910F01FC01ED55FD4F1082DA
:10487000FC01EC55FD4F108289E491E09093160104
:104880008093150189E391E09093140180931301C3
:104890006FED73E189E891E00E943E1880E090E0BE
:1048A0000895A29FB001B39FC001A39F700D811D09
:1048B0001124911DB29F700D811D1124911D089529
:1048C00097FB072E16F4009407D077FD09D00E94BD
:1048D000B12407FC05D03EF4909581959F4F089533
:1048E000709561957F4F08952F923F924F925F92FE
:1048F0006F927F928F929F92AF92BF92CF92DF92F0
:10490000EF92FF920F931F93CF93DF93CDB7DEB754
:10491000CA1BDB0B0FB6F894DEBF0FBECDBF0994E8
:104920002A88398848885F846E847D848C849B843F
:10493000AA84B984C884DF80EE80FD800C811B814D
:10494000AA81B981CE0FD11D0FB6F894DEBF0FBE7C
:10495000CDBFED010895EE0FFF1F0590F491E02DFE
:104960000994AA1BBB1B51E107C0AA1FBB1FA617B6
:10497000B70710F0A61BB70B881F991F5A95A9F708
:1049800080959095BC01CD0108955058BB27AA276A
:104990000ED075C166D130F06BD120F031F49F3F5D
:1049A00011F41EF45BC10EF4E095E7FB51C1E92F51
:1049B00077D180F3BA17620773078407950718F059
:1049C00071F49EF58FC10EF4E0950B2EBA2FA02D39
:1049D0000B01B90190010C01CA01A0011124FF27AC
:1049E000591B99F0593F50F4503E68F11A16F040A7
:1049F000A22F232F342F4427585FF3CF46953795A6
:104A00002795A795F0405395C9F77EF41F16BA0B6A
:104A1000620B730B840BBAF09150A1F0FF0FBB1F18
:104A2000661F771F881FC2F70EC0BA0F621F731F61
:104A3000841F48F4879577956795B795F7959E3FBE
:104A400008F0B3CF9395880F08F09927EE0F97954C
:104A500087950895D9D008F481E008950CD00FC14E
:104A600007D140F0FED030F021F45F3F19F0F0C0E4
:104A7000511139C1F3C014D198F39923C9F35523C7
:104A8000B1F3951B550BBB27AA2762177307840741
:104A900038F09F5F5F4F220F331F441FAA1FA9F3F7
:104AA00033D00E2E3AF0E0E830D091505040E695E9
:104AB000001CCAF729D0FE2F27D0660F771F881F4A
:104AC000BB1F261737074807AB07B0E809F0BB0B39
:104AD000802DBF01FF2793585F4F2AF09E3F51055D
:104AE00068F0B6C000C15F3FECF3983EDCF38695FA
:104AF00077956795B795F7959F5FC9F7880F911DD3
:104B00009695879597F90895E1E0660F771F881FBE
:104B1000BB1F621773078407BA0720F0621B730B71
:104B2000840BBA0BEE1F88F7E095089504D06894C3
:104B3000B111D9C00895BCD088F09F5790F0B92F1B
:104B40009927B751A0F0D1F0660F771F881F991FE2
:104B50001AF0BA95C9F712C0B13081F0C3D0B1E0F4
:104B60000895C0C0672F782F8827B85F39F0B93F04
:104B7000CCF3869577956795B395D9F73EF49095E4
:104B80008095709561957F4F8F4F9F4F0895E89462
:104B900009C097FB3EF490958095709561957F4F85
:104BA0008F4F9F4F9923A9F0F92F96E9BB27939533
:104BB000F695879577956795B795F111F8CFFAF443
:104BC000BB0F11F460FF1BC06F5F7F4F8F4F9F4F74
:104BD00016C0882311F096E911C0772321F09EE8D2
:104BE000872F762F05C0662371F096E8862F70E038
:104BF00060E02AF09A95660F771F881FDAF7880F12
:104C00009695879597F90895990F0008550FAA0B67
:104C1000E0E8FEEF16161706E807F907C0F01216CF
:104C20001306E407F50798F0621B730B840B950BD2
:104C300039F40A2661F0232B242B252B21F4089527
:104C40000A2609F4A140A6958FEF811D811D0895C4
:104C500097F99F6780E870E060E008959FEF80EC2F
:104C6000089500240A9416161706180609060895D2
:104C700000240A9412161306140605060895092E38
:104C80000394000C11F4882352F0BB0F40F4BF2BA7
:104C900011F460FF04C06F5F7F4F8F4F9F4F0895E7
:104CA00057FD9058440F551F59F05F3F71F04795DD
:104CB000880F97FB991F61F09F3F79F087950895C2
:104CC000121613061406551FF2CF4695F1DF08C0E1
:104CD000161617061806991FF1CF869571056105FE
:104CE00008940895E894BB2766277727CB0197F9A6
:104CF00008958ADF08F48FEF08950BD0C0CFB1DF9D
:104D000028F0B6DF18F0952309F0A2CFA7CF112421
:104D1000EACFC6DFA0F3959FD1F3950F50E0551F62
:104D2000629FF001729FBB27F00DB11D639FAA2700
:104D3000F00DB11DAA1F649F6627B00DA11D661F4F
:104D4000829F2227B00DA11D621F739FB00DA11D70
:104D5000621F839FA00D611D221F749F3327A00D2A
:104D6000611D231F849F600D211D822F762F6A2FC6
:104D700011249F5750408AF0E1F088234AF0EE0F4B
:104D8000FF1FBB1F661F771F881F91505040A9F758
:104D90009E3F510570F05CCFA6CF5F3FECF3983E8D
:104DA000DCF3869577956795B795F795E7959F5FBF
:104DB000C1F7FE2B880F911D9695879597F9089559
:104DC000FA01EE0FFF1F30962105310599F16115AB
:104DD000710561F48038BFE39B0749F1689490380E
:104DE000810561F08038BFEF9B0741F0992342F5C0
:104DF000FF3FE1053105210511F1E8940894E7959D
:104E0000D901AA2329F4AB2FBE2FF85FD0F310C02D
:104E1000FF5F70F4A695E0F7F73950F019F0FF3A0C
:104E200038F49F779F930CD00F9007FC905808950B
:104E30003EF014CF60E070E080E89FE308954FE714
:104E40009F775F934F933F932F939ED02F913F91E6
:104E50004F915F9152DF05C019F40EF0F9CE42CFA9
:104E6000FDCE26DFC8F39638C0F707F80F92E89416
:104E70002BE33AEA48EB5FE74EDF0F920F920F9277
:104E80004DB75EB70F92C0D0ECE8F0E016D04F916E
:104E90005F91EF91FF91E595EE1FFF1F49F0FE57DF
:104EA000E0684427EE0F441FFA95E1F74195550B52
:104EB00032D00F9007FE26C00895DF93CF931F9343
:104EC0000F93FF92EF92DF927B018C01689405C0F3
:104ED000DA2EEF011EDFFE01E894A59125913591B0
:104EE00045915591AEF3EF0162DDFE019701A801F6
:104EF000DA9479F7DF90EF90FF900F911F91CF91A7
:104F0000DF9108959B01AC0160E070E080E89FE3D1
:104F1000A5CD9ECEACC0CCDEE8F39923D9F3940F97
:104F2000511DBBF39150504094F059F0882332F05A
:104F3000660F771F881F91505040C1F79E3F510563
:104F400044F7880F911D9695879597F908955F3FCF
:104F5000ACF0983E9CF0BB27869577956795B79502
:104F600008F4B1609395C1F7BB0F58F711F460FFD7
:104F7000E8CF6F5F7F4F8F4F9F4FE3CFB4CE0EF0E0
:104F800076C06CCE689464CE93DEC8F39923D1F3D7
:104F9000C6F3DF93CF931F930F93FF92C92FDD27A3
:104FA00088232AF02197660F771F881FDAF720E001
:104FB00030E040E85FEB9FE3883920F0803E30F03E
:104FC00021968F77E3DCE4EBF0E003C0DFDCE1EE79
:104FD000F0E073DF8B01BE01EC01FB2E6F5771090E
:104FE0007595771F880B990BD4DD28E132E741E3F3
:104FF0005FE38FDEAF2D9801AE01FF900F911F91FF
:10500000CF91DF91D4DC3BCEFA01DC01AA0FBB1FAC
:105010009B01AC01BF5728F422273327442750783F
:105020001FC0B75188F4AB2F0024469537952795BC
:10503000011CA395D2F3002069F0220F331F441FF7
:10504000B395DAF30DD0A1CC61307105A0E88A07E1
:10505000B94630F49B01AC01662777278827907802
:10506000309621F0208331834283538308959F3FFC
:1050700031F0915020F4879577956795B795880F13
:10508000911D9695879597F908958F929F92AF926B
:10509000BF92CF92DF92EF92FF92CF93DF93EC011A
:1050A000688179818A819B816115710581059105EE
:1050B00021F464E279ED8BE597E02DE133EF41E0F7
:1050C00050E00E94772A49015A019B01AC01A7EAEE
:1050D000B1E40E94642A6B017C01ACEEB4EFA5013F
:1050E00094010E94722AC60ED71EE81EF91EF7FE12
:1050F00006C081E0C81AD108E10880E8F80AC88231
:10510000D982EA82FB82C6019F77DF91CF91FF901F
:10511000EF90DF90CF90BF90AF909F908F900895C9
:105120000E944528089587E191E00E94452808954E
:10513000A0E0B0E08093170190931801A0931901AB
:10514000B0931A010895283008F027E03327DA01D8
:10515000990F311D87FD916000966105710539F445
:1051600032602E5F3D9330E32A95E1F708959F3F2B
:1051700030F080387105610509F03C5F3C5F3D937C
:10518000913008F08068911DDF93CF931F930F93A8
:10519000FF92EF92192F987F9695E92F9695969505
:1051A000E90FFF27E059FE4F99273327EE24FF240C
:1051B000A701E70105900894079428F4360FE71E2D
:1051C000F81E491F511D660F771F881F991F0694EF
:1051D000A1F70590079428F4E70EF81E491F561F03
:1051E000C11D770F881F991F661F0694A1F70590B0
:1051F000079428F4F80E491F561FC71FD11D880FAA
:10520000991F661F771F0694A1F70590079420F455
:10521000490F561FC71FD81F990F661F771F881F7A
:105220000694A9F784911095177041F0D695C7950B
:1052300057954795F794E7941A95C1F7E6E1F1E0A1
:1052400068941590159135916591959105907FE23F
:105250007395E118F10A430B560BC90BD009C0F73F
:10526000E10CF11E431F561FC91FD01D7EF4703381
:1052700011F48A95E6CFE894015030F0080F0AF453
:105280000027021708F4202F2395022F7A3328F0E5
:1052900079E37D932A95E9F710C07D932A9589F6E5
:1052A000069497956795379517951794E118F10A25
:1052B000430B560BC90BD00998F023957E9173953B
:1052C0007A3308F070E37C932013B8F77E91706115
:1052D0007D9330F0839571E37D9370E32A95E1F738
:1052E0001124EF90FF900F911F91CF91DF9199279B
:1052F00087FD90950895FC01059061507040011064
:10530000D8F7809590958E0F9F1F0895FC016150EE
:10531000704001900110D8F7809590958E0F9F1FD7
:1053200008950F931F93CF93DF93182F092FEB014D
:105330008B8181FD03C08FEF9FEF20C082FF10C0E3
:105340004E815F812C813D81421753077CF4E881B7
:10535000F9819F012F5F3F4F39832883108306C057
:10536000E885F985812F0995892B29F72E813F81C1
:105370002F5F3F4F3F832E83812F902FDF91CF915F
:105380001F910F9108950F931F93CF93DF93E09197
:105390002B04F0912C04238121FF1BC0EC0100E0C1
:1053A00010E0899160912B0470912C04DB01189618
:1053B000ED91FC911997882331F00995892B89F398
:1053C0000FEF1FEFEECF8AE00995892B11F4C8018A
:1053D00002C08FEF9FEFDF91CF911F910F91089542
:1053E000FA01AA27283051F1203181F1E8946F9316
:1053F0006E7F6E5F7F4F8F4F9F4FAF4FB1E03ED0BC
:10540000B4E03CD0670F781F891F9A1FA11D680F59
:10541000791F8A1F911DA11D6A0F711D811D911D8C
:10542000A11D20D009F468943F912AE0269F112401
:105430003019305D3193DEF6CF010895462F477065
:10544000405D4193B3E00FD0C9F7F6CF462F4F70C0
:10545000405D4A3318F0495D31FD4052419302D01E
:10546000A9F7EACFB4E0A6959795879577956795C4
:10547000BA95C9F700976105710508959B01AC01C4
:105480000A2E06945795479537952795BA95C9F7EB
:10549000620F731F841F951FA01D0895F999FECFF9
:1054A00092BD81BDF89A992780B50895262FF99964
:1054B000FECF1FBA92BD81BD20BD0FB6F894FA9AF7
:1054C000F99A0FBE019608950E945124A59F900D50
:1054D000B49F900DA49F800D911D11240895B7FFD6
:1054E0000C94642A0E94642A821B930B0895052E53
:1054F00097FB1EF400940E948E2A57FD07D00E944D
:10550000962A07FC03D04EF40C948E2A50954095B1
:10551000309521953F4F4F4F5F4F0895909580955F
:10552000709561957F4F8F4F9F4F0895A1E21A2E7E
:10553000AA1BBB1BFD010DC0AA1FBB1FEE1FFF1F37
:10554000A217B307E407F50720F0A21BB30BE40B87
:10555000F50B661F771F881F991F1A9469F76095CE
:105560007095809590959B01AC01BD01CF01089588
:04557000F894FFCFDD
:1055740000000002000000003001000000002601CD
:10558400AA4417411740170100000046756C6C2EA1
:02559400000015
:00000001FF
